{
  "_format": "hh-sol-artifact-1",
  "contractName": "EchoooMallPayment",
  "sourceName": "contracts/EchoooMallPayment.sol",
  "abi": [
    {
      "inputs": [
        {
          "internalType": "address",
          "name": "registryAddress",
          "type": "address"
        }
      ],
      "stateMutability": "nonpayable",
      "type": "constructor"
    },
    {
      "anonymous": false,
      "inputs": [
        {
          "indexed": true,
          "internalType": "bytes32",
          "name": "transactionId",
          "type": "bytes32"
        },
        {
          "indexed": true,
          "internalType": "address",
          "name": "merchant",
          "type": "address"
        },
        {
          "indexed": true,
          "internalType": "address",
          "name": "paymentAddress",
          "type": "address"
        },
        {
          "indexed": false,
          "internalType": "address",
          "name": "token",
          "type": "address"
        },
        {
          "indexed": false,
          "internalType": "uint256",
          "name": "amount",
          "type": "uint256"
        }
      ],
      "name": "FullRefund",
      "type": "event"
    },
    {
      "anonymous": false,
      "inputs": [
        {
          "indexed": true,
          "internalType": "bytes32",
          "name": "transactionId",
          "type": "bytes32"
        },
        {
          "indexed": true,
          "internalType": "address",
          "name": "merchant",
          "type": "address"
        },
        {
          "indexed": true,
          "internalType": "address",
          "name": "recipient",
          "type": "address"
        },
        {
          "indexed": false,
          "internalType": "address",
          "name": "token",
          "type": "address"
        },
        {
          "indexed": false,
          "internalType": "uint256",
          "name": "amount",
          "type": "uint256"
        }
      ],
      "name": "FundsWithdrawn",
      "type": "event"
    },
    {
      "anonymous": false,
      "inputs": [
        {
          "indexed": true,
          "internalType": "bytes32",
          "name": "transactionId",
          "type": "bytes32"
        },
        {
          "indexed": true,
          "internalType": "address",
          "name": "user",
          "type": "address"
        },
        {
          "indexed": false,
          "internalType": "address",
          "name": "token",
          "type": "address"
        },
        {
          "indexed": false,
          "internalType": "uint256",
          "name": "amount",
          "type": "uint256"
        },
        {
          "indexed": false,
          "internalType": "address",
          "name": "paymentAddress",
          "type": "address"
        },
        {
          "indexed": false,
          "internalType": "address",
          "name": "merchant",
          "type": "address"
        },
        {
          "indexed": false,
          "internalType": "uint256",
          "name": "timestamp",
          "type": "uint256"
        }
      ],
      "name": "OrderPlaced",
      "type": "event"
    },
    {
      "anonymous": false,
      "inputs": [
        {
          "indexed": true,
          "internalType": "bytes32",
          "name": "transactionId",
          "type": "bytes32"
        },
        {
          "indexed": true,
          "internalType": "address",
          "name": "merchant",
          "type": "address"
        },
        {
          "indexed": true,
          "internalType": "address",
          "name": "paymentAddress",
          "type": "address"
        },
        {
          "indexed": false,
          "internalType": "address",
          "name": "token",
          "type": "address"
        },
        {
          "indexed": false,
          "internalType": "uint256",
          "name": "amount",
          "type": "uint256"
        }
      ],
      "name": "RefundProcessed",
      "type": "event"
    },
    {
      "anonymous": false,
      "inputs": [
        {
          "indexed": true,
          "internalType": "address",
          "name": "merchant",
          "type": "address"
        },
        {
          "indexed": true,
          "internalType": "bytes32",
          "name": "transactionId",
          "type": "bytes32"
        }
      ],
      "name": "TransactionLocked",
      "type": "event"
    },
    {
      "anonymous": false,
      "inputs": [
        {
          "indexed": true,
          "internalType": "address",
          "name": "merchant",
          "type": "address"
        },
        {
          "indexed": true,
          "internalType": "bytes32",
          "name": "transactionId",
          "type": "bytes32"
        }
      ],
      "name": "TransactionUnlocked",
      "type": "event"
    },
    {
      "anonymous": false,
      "inputs": [
        {
          "indexed": true,
          "internalType": "address",
          "name": "user",
          "type": "address"
        },
        {
          "indexed": true,
          "internalType": "address",
          "name": "merchant",
          "type": "address"
        }
      ],
      "name": "UserUnlocked",
      "type": "event"
    },
    {
      "anonymous": false,
      "inputs": [
        {
          "indexed": true,
          "internalType": "address",
          "name": "user",
          "type": "address"
        },
        {
          "indexed": true,
          "internalType": "address",
          "name": "merchant",
          "type": "address"
        }
      ],
      "name": "Userlocked",
      "type": "event"
    },
    {
      "inputs": [
        {
          "internalType": "address",
          "name": "",
          "type": "address"
        },
        {
          "internalType": "uint256",
          "name": "",
          "type": "uint256"
        }
      ],
      "name": "MerchantOrders",
      "outputs": [
        {
          "internalType": "bytes32",
          "name": "",
          "type": "bytes32"
        }
      ],
      "stateMutability": "view",
      "type": "function"
    },
    {
      "inputs": [
        {
          "internalType": "uint256",
          "name": "",
          "type": "uint256"
        }
      ],
      "name": "OrderByIndex",
      "outputs": [
        {
          "internalType": "bytes32",
          "name": "",
          "type": "bytes32"
        }
      ],
      "stateMutability": "view",
      "type": "function"
    },
    {
      "inputs": [
        {
          "internalType": "address",
          "name": "",
          "type": "address"
        },
        {
          "internalType": "address",
          "name": "",
          "type": "address"
        }
      ],
      "name": "blackList",
      "outputs": [
        {
          "internalType": "bool",
          "name": "",
          "type": "bool"
        }
      ],
      "stateMutability": "view",
      "type": "function"
    },
    {
      "inputs": [],
      "name": "getAllLockedTransactionCount",
      "outputs": [
        {
          "internalType": "uint256",
          "name": "",
          "type": "uint256"
        }
      ],
      "stateMutability": "view",
      "type": "function"
    },
    {
      "inputs": [],
      "name": "getAllLockedTransactions",
      "outputs": [
        {
          "internalType": "bytes32[]",
          "name": "",
          "type": "bytes32[]"
        }
      ],
      "stateMutability": "view",
      "type": "function"
    },
    {
      "inputs": [
        {
          "internalType": "address",
          "name": "merchant",
          "type": "address"
        }
      ],
      "name": "getMerchantOrders",
      "outputs": [
        {
          "internalType": "bytes32[]",
          "name": "",
          "type": "bytes32[]"
        }
      ],
      "stateMutability": "view",
      "type": "function"
    },
    {
      "inputs": [
        {
          "internalType": "bytes32",
          "name": "transactionId",
          "type": "bytes32"
        }
      ],
      "name": "getOrderDetails",
      "outputs": [
        {
          "components": [
            {
              "internalType": "address",
              "name": "user",
              "type": "address"
            },
            {
              "internalType": "address",
              "name": "token",
              "type": "address"
            },
            {
              "internalType": "uint256",
              "name": "totalAmount",
              "type": "uint256"
            },
            {
              "internalType": "uint256",
              "name": "paidAmount",
              "type": "uint256"
            },
            {
              "internalType": "address",
              "name": "paymentAddress",
              "type": "address"
            },
            {
              "internalType": "address",
              "name": "merchant",
              "type": "address"
            },
            {
              "internalType": "uint256",
              "name": "timestamp",
              "type": "uint256"
            },
            {
              "internalType": "uint256",
              "name": "refundedAmount",
              "type": "uint256"
            },
            {
              "internalType": "bool",
              "name": "isWithdrawn",
              "type": "bool"
            },
            {
              "internalType": "bool",
              "name": "isRefunded",
              "type": "bool"
            },
            {
              "internalType": "bool",
              "name": "isLocked",
              "type": "bool"
            }
          ],
          "internalType": "struct EchoooMallOrder.Order",
          "name": "",
          "type": "tuple"
        }
      ],
      "stateMutability": "view",
      "type": "function"
    },
    {
      "inputs": [
        {
          "internalType": "address",
          "name": "merchant",
          "type": "address"
        }
      ],
      "name": "getWithdrawableOrders",
      "outputs": [
        {
          "internalType": "bytes32[]",
          "name": "",
          "type": "bytes32[]"
        }
      ],
      "stateMutability": "view",
      "type": "function"
    },
    {
      "inputs": [
        {
          "internalType": "bytes32",
          "name": "transactionId",
          "type": "bytes32"
        }
      ],
      "name": "lockTransaction",
      "outputs": [],
      "stateMutability": "nonpayable",
      "type": "function"
    },
    {
      "inputs": [
        {
          "internalType": "address",
          "name": "user",
          "type": "address"
        }
      ],
      "name": "lockUser",
      "outputs": [],
      "stateMutability": "nonpayable",
      "type": "function"
    },
    {
      "inputs": [
        {
          "internalType": "uint256",
          "name": "",
          "type": "uint256"
        }
      ],
      "name": "lockedTransactions",
      "outputs": [
        {
          "internalType": "bytes32",
          "name": "",
          "type": "bytes32"
        }
      ],
      "stateMutability": "view",
      "type": "function"
    },
    {
      "inputs": [
        {
          "internalType": "bytes32",
          "name": "",
          "type": "bytes32"
        }
      ],
      "name": "orders",
      "outputs": [
        {
          "internalType": "address",
          "name": "user",
          "type": "address"
        },
        {
          "internalType": "address",
          "name": "token",
          "type": "address"
        },
        {
          "internalType": "uint256",
          "name": "totalAmount",
          "type": "uint256"
        },
        {
          "internalType": "uint256",
          "name": "paidAmount",
          "type": "uint256"
        },
        {
          "internalType": "address",
          "name": "paymentAddress",
          "type": "address"
        },
        {
          "internalType": "address",
          "name": "merchant",
          "type": "address"
        },
        {
          "internalType": "uint256",
          "name": "timestamp",
          "type": "uint256"
        },
        {
          "internalType": "uint256",
          "name": "refundedAmount",
          "type": "uint256"
        },
        {
          "internalType": "bool",
          "name": "isWithdrawn",
          "type": "bool"
        },
        {
          "internalType": "bool",
          "name": "isRefunded",
          "type": "bool"
        },
        {
          "internalType": "bool",
          "name": "isLocked",
          "type": "bool"
        }
      ],
      "stateMutability": "view",
      "type": "function"
    },
    {
      "inputs": [],
      "name": "owner",
      "outputs": [
        {
          "internalType": "address",
          "name": "",
          "type": "address"
        }
      ],
      "stateMutability": "view",
      "type": "function"
    },
    {
      "inputs": [
        {
          "internalType": "bytes32",
          "name": "transactionId",
          "type": "bytes32"
        },
        {
          "internalType": "address",
          "name": "token",
          "type": "address"
        },
        {
          "internalType": "uint256",
          "name": "totalAmount",
          "type": "uint256"
        },
        {
          "internalType": "uint256",
          "name": "actualAmount",
          "type": "uint256"
        },
        {
          "internalType": "address",
          "name": "merchant",
          "type": "address"
        }
      ],
      "name": "placeOrder",
      "outputs": [],
      "stateMutability": "nonpayable",
      "type": "function"
    },
    {
      "inputs": [
        {
          "internalType": "bytes32",
          "name": "transactionId",
          "type": "bytes32"
        },
        {
          "internalType": "uint256",
          "name": "refundAmount",
          "type": "uint256"
        },
        {
          "internalType": "enum EchoooMallOrder.RefundType",
          "name": "PaymentMethod",
          "type": "uint8"
        }
      ],
      "name": "refundOrder",
      "outputs": [],
      "stateMutability": "nonpayable",
      "type": "function"
    },
    {
      "inputs": [
        {
          "internalType": "bytes32[]",
          "name": "transactionIds",
          "type": "bytes32[]"
        },
        {
          "internalType": "enum EchoooMallOrder.RefundType",
          "name": "PaymentMethod",
          "type": "uint8"
        }
      ],
      "name": "refundOrdersBatch",
      "outputs": [],
      "stateMutability": "nonpayable",
      "type": "function"
    },
    {
      "inputs": [
        {
          "internalType": "bytes32[]",
          "name": "transactionIds",
          "type": "bytes32[]"
        },
        {
          "internalType": "uint256[]",
          "name": "amounts",
          "type": "uint256[]"
        },
        {
          "internalType": "enum EchoooMallOrder.RefundType",
          "name": "PaymentMethod",
          "type": "uint8"
        }
      ],
      "name": "refundOrdersBatchFromMerchant",
      "outputs": [],
      "stateMutability": "nonpayable",
      "type": "function"
    },
    {
      "inputs": [],
      "name": "tokenRegistry",
      "outputs": [
        {
          "internalType": "contract ITokenRegistry",
          "name": "",
          "type": "address"
        }
      ],
      "stateMutability": "view",
      "type": "function"
    },
    {
      "inputs": [],
      "name": "totalOrders",
      "outputs": [
        {
          "internalType": "uint256",
          "name": "",
          "type": "uint256"
        }
      ],
      "stateMutability": "view",
      "type": "function"
    },
    {
      "inputs": [
        {
          "internalType": "bytes32",
          "name": "transactionId",
          "type": "bytes32"
        }
      ],
      "name": "unlockTransaction",
      "outputs": [],
      "stateMutability": "nonpayable",
      "type": "function"
    },
    {
      "inputs": [
        {
          "internalType": "address",
          "name": "user",
          "type": "address"
        }
      ],
      "name": "unlockUser",
      "outputs": [],
      "stateMutability": "nonpayable",
      "type": "function"
    },
    {
      "inputs": [
        {
          "internalType": "address",
          "name": "registryAddress",
          "type": "address"
        }
      ],
      "name": "updateTokenRegistry",
      "outputs": [],
      "stateMutability": "nonpayable",
      "type": "function"
    },
    {
      "inputs": [
        {
          "internalType": "bytes32",
          "name": "transactionId",
          "type": "bytes32"
        },
        {
          "internalType": "address",
          "name": "recipient",
          "type": "address"
        }
      ],
      "name": "withdrawFunds",
      "outputs": [],
      "stateMutability": "nonpayable",
      "type": "function"
    },
    {
      "inputs": [
        {
          "internalType": "bytes32[]",
          "name": "transactionIds",
          "type": "bytes32[]"
        },
        {
          "internalType": "address",
          "name": "recipient",
          "type": "address"
        }
      ],
      "name": "withdrawFundsBatch",
      "outputs": [],
      "stateMutability": "nonpayable",
      "type": "function"
    }
  ],
  "bytecode": "0x608060405234801561001057600080fd5b50604051620023533803806200235383398101604081905261003191610064565b60068054336001600160a01b031991821617909155600780549091166001600160a01b0392909216919091179055610094565b60006020828403121561007657600080fd5b81516001600160a01b038116811461008d57600080fd5b9392505050565b6122af80620000a46000396000f3fe608060405234801561001057600080fd5b50600436106101385760003560e01c80638da5cb5b116100b35780638da5cb5b146103615780639c3f1e90146103815780639d23c4c714610469578063bd1870a31461047c578063c21bfad71461048f578063c57bb4af146104af578063c5d43351146104c2578063d7972580146104d5578063ddb2a3e2146104e8578063e1a8004c146104fb578063e3f2178d1461050e578063fb97a1871461052157600080fd5b8063024663f71461013d578063034254c9146102685780630db9bd61146102a65780631d834409146102bb5780631fa915a4146102d25780632133dba0146102e55780633dcdfa56146102fa5780634ebac5431461030d57806356e082a4146103205780635b6795c5146103285780635c3f11e21461033b5780636d368e241461034e575b600080fd5b61025261014b366004611c85565b6040805161016081018252600080825260208201819052918101829052606081018290526080810182905260a0810182905260c0810182905260e0810182905261010081018290526101208101829052610140810191909152506000908152602081815260409182902082516101608101845281546001600160a01b039081168252600183015481169382019390935260028201549381019390935260038101546060840152600481015482166080840152600581015490911660a0830152600681015460c0830152600781015460e08301526008015460ff8082161515610100808501919091528204811615156101208401526201000090910416151561014082015290565b60405161025f9190611cab565b60405180910390f35b610296610276366004611d73565b600360209081526000928352604080842090915290825290205460ff1681565b604051901515815260200161025f565b6102b96102b4366004611df1565b610534565b005b6102c460045481565b60405190815260200161025f565b6102b96102e0366004611e44565b610579565b6102ed6105f3565b60405161025f9190611e66565b6102ed610308366004611e44565b61064b565b6102ed61031b366004611e44565b61099f565b6005546102c4565b6102b9610336366004611eaa565b610a0b565b6102c4610349366004611efa565b610e6d565b6102b961035c366004611f33565b610e9e565b600654610374906001600160a01b031681565b60405161025f9190611f7d565b61040061038f366004611c85565b6000602081905290815260409020805460018201546002830154600384015460048501546005860154600687015460078801546008909801546001600160a01b03978816989688169795969495938416949390921692909160ff80821691610100810482169162010000909104168b565b604080516001600160a01b039c8d1681529a8c1660208c01528a0198909852606089019690965293881660808801529690911660a086015260c085015260e08401949094529215156101008301529115156101208201529015156101408201526101600161025f565b600754610374906001600160a01b031681565b6102b961048a366004611e44565b610fb4565b6102c461049d366004611c85565b60016020526000908152604090205481565b6102b96104bd366004611c85565b611050565b6102b96104d0366004611f91565b61119f565b6102b96104e3366004611e44565b611404565b6102c46104f6366004611c85565b6114a6565b6102b9610509366004611fb4565b6114c7565b6102b961051c366004611fe0565b6117fc565b6102b961052f366004611c85565b61189d565b60005b828110156105735761056184848381811061055457610554612054565b905060200201358361119f565b8061056b81612080565b915050610537565b50505050565b6006546001600160a01b031633146105d15760405162461bcd60e51b81526020600482015260166024820152752737ba103a34329031b7b73a3930b1ba1037bbb732b960511b60448201526064015b60405180910390fd5b600780546001600160a01b0319166001600160a01b0392909216919091179055565b6060600580548060200260200160405190810160405280929190818152602001828054801561064157602002820191906000526020600020905b81548152602001906001019080831161062d575b5050505050905090565b60606000805b6001600160a01b0384166000908152600260205260409020548110156107a5576001600160a01b03841660009081526002602052604081208054829182918590811061069f5761069f612054565b60009182526020808320909101548352828101939093526040918201902081516101608101835281546001600160a01b0390811682526001830154811694820194909452600282015492810192909252600381015460608301526004810154831660808301526005810154831660a08301819052600682015460c0840152600782015460e084015260089091015460ff808216151561010080860191909152820481161515610120850152620100009091041615156101408301529092509086161480156107705750806101000151155b801561077f5750806101200151155b15610792578261078e81612080565b9350505b508061079d81612080565b915050610651565b50600080826001600160401b038111156107c1576107c161209b565b6040519080825280602002602001820160405280156107ea578160200160208202803683370190505b50905060005b6001600160a01b038616600090815260026020526040902054811015610996576001600160a01b03861660009081526002602052604081208054829182918590811061083e5761083e612054565b60009182526020808320909101548352828101939093526040918201902081516101608101835281546001600160a01b0390811682526001830154811694820194909452600282015492810192909252600381015460608301526004810154831660808301526005810154831660a08301819052600682015460c0840152600782015460e084015260089091015460ff8082161515610100808601919091528204811615156101208501526201000090910416151561014083015290925090881614801561090f5750806101000151155b801561091e5750806101200151155b15610983576001600160a01b038716600090815260026020526040902080548390811061094d5761094d612054565b906000526020600020015483858151811061096a5761096a612054565b60209081029190910101528361097f81612080565b9450505b508061098e81612080565b9150506107f0565b50949350505050565b6001600160a01b0381166000908152600260209081526040918290208054835181840281018401909452808452606093928301828280156109ff57602002820191906000526020600020905b8154815260200190600101908083116109eb575b50505050509050919050565b6000858152602081905260409020546001600160a01b031615610a675760405162461bcd60e51b81526020600482015260146024820152734f7264657220616c72656164792065786973747360601b60448201526064016105c8565b60008211610ab75760405162461bcd60e51b815260206004820152601d60248201527f416d6f756e74206d7573742062652067726561746572207468616e203000000060448201526064016105c8565b6007546040516360af135d60e11b81526001600160a01b039091169063c15e26ba90610ae7908790600401611f7d565b60206040518083038186803b158015610aff57600080fd5b505afa158015610b13573d6000803e3d6000fd5b505050506040513d601f19601f82011682018060405250810190610b3791906120b1565b610b735760405162461bcd60e51b815260206004820152600d60248201526c24b73b30b634b2103a37b5b2b760991b60448201526064016105c8565b3360008181526003602090815260408083206001600160a01b038616845290915290205460ff1615610bda5760405162461bcd60e51b815260206004820152601060248201526f125b881d1a1948189b1858dadb1a5cdd60821b60448201526064016105c8565b610be685823086611a6d565b604051806101600160405280826001600160a01b03168152602001866001600160a01b03168152602001858152602001848152602001826001600160a01b03168152602001836001600160a01b03168152602001428152602001600081526020016000151581526020016000151581526020016000151581525060008088815260200190815260200160002060008201518160000160006101000a8154816001600160a01b0302191690836001600160a01b0316021790555060208201518160010160006101000a8154816001600160a01b0302191690836001600160a01b03160217905550604082015181600201556060820151816003015560808201518160040160006101000a8154816001600160a01b0302191690836001600160a01b0316021790555060a08201518160050160006101000a8154816001600160a01b0302191690836001600160a01b0316021790555060c0820151816006015560e082015181600701556101008201518160080160006101000a81548160ff0219169083151502179055506101208201518160080160016101000a81548160ff0219169083151502179055506101408201518160080160026101000a81548160ff021916908315150217905550905050856001600060046000815480929190610dcc90612080565b90915550815260208082019290925260409081016000908120939093556001600160a01b03858116808552600284528285208054600181018255908652948490209094018a9055815189821681529283018790528416908201526060810191909152426080820152339087907f7e58762c2ddd6b97645bfb18478e1485156480ba05bb4fbdbcddb8673b80b6b49060a00160405180910390a3505050505050565b60026020528160005260406000208181548110610e8957600080fd5b90600052602060002001600091509150505481565b60005b82811015610573576000806000868685818110610ec057610ec0612054565b6020908102929092013583525081810192909252604090810160002081516101608101835281546001600160a01b039081168252600183015481169482019490945260028201549281019290925260038101546060830152600481015483166080830152600581015490921660a0820152600682015460c0820152600782015460e082015260089091015460ff808216151561010080850191909152820481161515610120840152620100009091041615156101408201529050610fa1858584818110610f8f57610f8f612054565b905060200201358260600151856114c7565b5080610fac81612080565b915050610ea1565b6001600160a01b03811660009081526003602090815260408083203380855292529091205460ff1661101f5760405162461bcd60e51b8152602060048201526014602482015273139bdd081a5b881d1a1948189b1858dadb1a5cdd60621b60448201526064016105c8565b6001600160a01b0391821660009081526003602090815260408083209390941682529190915220805460ff19169055565b600081815260208190526040902060058101546001600160a01b031633146110ce5760405162461bcd60e51b815260206004820152602b60248201527f4f6e6c7920746865206d65726368616e742063616e206c6f636b20746869732060448201526a3a3930b739b0b1ba34b7b760a91b60648201526084016105c8565b600881015462010000900460ff16156111295760405162461bcd60e51b815260206004820152601d60248201527f5472616e73616374696f6e20697320616c7265616479206c6f636b656400000060448201526064016105c8565b60088101805462ff00001916620100001790556005805460018101825560009182527f036b6384b5eca791c62761152d0c79bb0604c104a5fb6f4eb0703f3154bb3db001839055604051839133917fced1fafa2c6a47c5ac7b08abf7318db470f03158c0f9ceda08c3e9201a7b33679190a35050565b6000828152602081815260409182902082516101608101845281546001600160a01b039081168252600183015481169382019390935260028201549381019390935260038101546060840152600481015482166080840152600581015490911660a08301819052600682015460c0840152600782015460e084015260089091015460ff80821615156101008086019190915282048116151561012085015262010000909104161515610140830152331461126b5760405162461bcd60e51b81526004016105c8906120d3565b8061010001511561128e5760405162461bcd60e51b81526004016105c89061210a565b806101200151156112b15760405162461bcd60e51b81526004016105c89061213b565b806101400151156112d45760405162461bcd60e51b81526004016105c89061216c565b60008160600151116113285760405162461bcd60e51b815260206004820152601e60248201527f4e6f2066756e647320617661696c61626c6520746f207769746864726177000060448201526064016105c8565b60808101516001600160a01b03908116600090815260036020908152604080832060a08601519094168352929052205460ff16156113785760405162461bcd60e51b81526004016105c89061219b565b600083815260208181526040909120600801805460ff1916600117905581015160608201516113a991908490611b75565b816001600160a01b0316336001600160a01b0316847f214bb2ab6f1f32a9540ccb6f594ba53668a5899918539a34252f62b574257d8b846020015185606001516040516113f79291906121ca565b60405180910390a4505050565b6001600160a01b03811660009081526003602090815260408083203380855292529091205460ff16156114725760405162461bcd60e51b81526020600482015260166024820152751059191959081d1bc81d1a1948189b1858dadb1a5cdd60521b60448201526064016105c8565b6001600160a01b0391821660009081526003602090815260408083209390941682529190915220805460ff19166001179055565b600581815481106114b657600080fd5b600091825260209091200154905081565b6000838152602081815260409182902082516101608101845281546001600160a01b039081168252600183015481169382019390935260028201549381019390935260038101546060840152600481015482166080840152600581015490911660a08301819052600682015460c0840152600782015460e084015260089091015460ff8082161515610100808601919091528204811615156101208501526201000090910416151561014083015233146115935760405162461bcd60e51b81526004016105c8906120d3565b806101000151156115b65760405162461bcd60e51b81526004016105c89061210a565b806101200151156115d95760405162461bcd60e51b81526004016105c89061213b565b806101400151156115fc5760405162461bcd60e51b81526004016105c89061216c565b60808101516001600160a01b03908116600090815260036020908152604080832060a08601519094168352929052205460ff161561164c5760405162461bcd60e51b81526004016105c89061219b565b828160e00181815161165e91906121e3565b905250606081015160e082015111156116b95760405162461bcd60e51b815260206004820152601f60248201527f416d6f756e74206578636565647320746865206f7264657220616d6f756e740060448201526064016105c8565b60008260018111156116cd576116cd6121fb565b14156116eb576116e68160200151826080015185611b75565b6116ff565b6116ff816020015133836080015186611a6d565b60e08101805160008681526020819052604090206007015560608201519051141561179c5760008481526020818152604091829020600801805461ff001916610100179055608083015190830151606084015192516001600160a01b0390921692339288927fb3fb00976a6b099e111306d7fbb637c3cbc7f7f9e87d7d03e4e560c1c885dcfd9261178f926121ca565b60405180910390a4610573565b80608001516001600160a01b0316336001600160a01b0316857f14edd35b43c228ee73a0aa9df658e89732dab299e48b06fb829318c1b291d7c8846020015185606001516040516117ee9291906121ca565b60405180910390a450505050565b83821461183d5760405162461bcd60e51b815260206004820152600f60248201526e098cadccee8d0409ad2e6dac2e8c6d608b1b60448201526064016105c8565b60005b848110156118955761188386868381811061185d5761185d612054565b9050602002013585858481811061187657611876612054565b90506020020135846114c7565b8061188d81612080565b915050611840565b505050505050565b600081815260208190526040902060058101546001600160a01b0316331461191d5760405162461bcd60e51b815260206004820152602d60248201527f4f6e6c7920746865206d65726368616e742063616e20756e6c6f636b2074686960448201526c39903a3930b739b0b1ba34b7b760991b60648201526084016105c8565b600881015462010000900460ff166119735760405162461bcd60e51b8152602060048201526019602482015278151c985b9cd858dd1a5bdb881a5cc81b9bdd081b1bd8dad959603a1b60448201526064016105c8565b60088101805462ff00001916905560005b600554811015611a3b5782600582815481106119a2576119a2612054565b90600052602060002001541415611a2957600580546119c390600190612211565b815481106119d3576119d3612054565b9060005260206000200154600582815481106119f1576119f1612054565b6000918252602090912001556005805480611a0e57611a0e612228565b60019003818190600052602060002001600090559055611a3b565b80611a3381612080565b915050611984565b50604051829033907fe18e9c4f686dbec85af18a02d4409a5f3fe1680455ec4e3f88c78f5b4ee8fbb690600090a35050565b604080516001600160a01b0385811660248301528481166044830152606480830185905283518084039091018152608490920183526020820180516001600160e01b03166323b872dd60e01b1790529151600092839290881691611ad1919061223e565b6000604051808303816000865af19150503d8060008114611b0e576040519150601f19603f3d011682016040523d82523d6000602084013e611b13565b606091505b5091509150818015611b3d575080511580611b3d575080806020019051810190611b3d91906120b1565b6118955760405162461bcd60e51b81526020600482015260096024820152682532ba37b71d29aa2360b91b60448201526064016105c8565b600080846001600160a01b031663a9059cbb60e01b8585604051602401611b9d9291906121ca565b60408051601f198184030181529181526020820180516001600160e01b03166001600160e01b0319909416939093179092529051611bdb919061223e565b6000604051808303816000865af19150503d8060008114611c18576040519150601f19603f3d011682016040523d82523d6000602084013e611c1d565b606091505b5091509150818015611c47575080511580611c47575080806020019051810190611c4791906120b1565b611c7e5760405162461bcd60e51b815260206004820152600860248201526712995d1bdb8e94d560c21b60448201526064016105c8565b5050505050565b600060208284031215611c9757600080fd5b5035919050565b6001600160a01b03169052565b600061016082019050611cbf828451611c9e565b6020830151611cd16020840182611c9e565b5060408301516040830152606083015160608301526080830151611cf86080840182611c9e565b5060a0830151611d0b60a0840182611c9e565b5060c083015160c083015260e083015160e083015261010080840151611d348285018215159052565b505061012083810151151590830152610140928301511515929091019190915290565b80356001600160a01b0381168114611d6e57600080fd5b919050565b60008060408385031215611d8657600080fd5b611d8f83611d57565b9150611d9d60208401611d57565b90509250929050565b60008083601f840112611db857600080fd5b5081356001600160401b03811115611dcf57600080fd5b6020830191508360208260051b8501011115611dea57600080fd5b9250929050565b600080600060408486031215611e0657600080fd5b83356001600160401b03811115611e1c57600080fd5b611e2886828701611da6565b9094509250611e3b905060208501611d57565b90509250925092565b600060208284031215611e5657600080fd5b611e5f82611d57565b9392505050565b6020808252825182820181905260009190848201906040850190845b81811015611e9e57835183529284019291840191600101611e82565b50909695505050505050565b600080600080600060a08688031215611ec257600080fd5b85359450611ed260208701611d57565b93506040860135925060608601359150611eee60808701611d57565b90509295509295909350565b60008060408385031215611f0d57600080fd5b611f1683611d57565b946020939093013593505050565b803560028110611d6e57600080fd5b600080600060408486031215611f4857600080fd5b83356001600160401b03811115611f5e57600080fd5b611f6a86828701611da6565b9094509250611e3b905060208501611f24565b6001600160a01b0391909116815260200190565b60008060408385031215611fa457600080fd5b82359150611d9d60208401611d57565b600080600060608486031215611fc957600080fd5b8335925060208401359150611e3b60408501611f24565b600080600080600060608688031215611ff857600080fd5b85356001600160401b038082111561200f57600080fd5b61201b89838a01611da6565b9097509550602088013591508082111561203457600080fd5b5061204188828901611da6565b9094509250611eee905060408701611f24565b634e487b7160e01b600052603260045260246000fd5b634e487b7160e01b600052601160045260246000fd5b60006000198214156120945761209461206a565b5060010190565b634e487b7160e01b600052604160045260246000fd5b6000602082840312156120c357600080fd5b81518015158114611e5f57600080fd5b6020808252601f908201527f4e6f7420746865206d65726368616e7420666f722074686973206f7264657200604082015260600190565b602080825260179082015276233ab732399030b63932b0b23c903bb4ba34323930bbb760491b604082015260600190565b60208082526017908201527613dc99195c881a185cc81899595b881c99599d5b991959604a1b604082015260600190565b602080825260159082015274151c985b9cd858dd1a5bdb881a5cc81b1bd8dad959605a1b604082015260600190565b602080825260159082015274155cd95c881a5b881d1a1948189b1858dadb1a5cdd605a1b604082015260600190565b6001600160a01b03929092168252602082015260400190565b600082198211156121f6576121f661206a565b500190565b634e487b7160e01b600052602160045260246000fd5b6000828210156122235761222361206a565b500390565b634e487b7160e01b600052603160045260246000fd5b6000825160005b8181101561225f5760208186018101518583015201612245565b8181111561226e576000828501525b50919091019291505056fea264697066735822122062b66f9a6b785734ec5e1450c316d989c65fee64d25d9b3cf38ab30696a6e7a264736f6c63430008090033",
  "linkReferences": {},
  "deployedLinkReferences": {}
}