{
  "_format": "hh-sol-artifact-1",
  "contractName": "EchoooMallPayment",
  "sourceName": "contracts/EchoooMallPayment.sol",
  "abi": [
    {
      "inputs": [
        {
          "internalType": "address",
          "name": "registryAddress",
          "type": "address"
        }
      ],
      "stateMutability": "nonpayable",
      "type": "constructor"
    },
    {
      "anonymous": false,
      "inputs": [
        {
          "indexed": true,
          "internalType": "bytes32",
          "name": "transactionId",
          "type": "bytes32"
        },
        {
          "indexed": true,
          "internalType": "address",
          "name": "merchant",
          "type": "address"
        },
        {
          "indexed": true,
          "internalType": "address",
          "name": "recipient",
          "type": "address"
        },
        {
          "indexed": false,
          "internalType": "address",
          "name": "token",
          "type": "address"
        },
        {
          "indexed": false,
          "internalType": "uint256",
          "name": "amount",
          "type": "uint256"
        }
      ],
      "name": "FundsWithdrawn",
      "type": "event"
    },
    {
      "anonymous": false,
      "inputs": [
        {
          "indexed": true,
          "internalType": "bytes32",
          "name": "transactionId",
          "type": "bytes32"
        },
        {
          "indexed": true,
          "internalType": "address",
          "name": "user",
          "type": "address"
        },
        {
          "indexed": false,
          "internalType": "address",
          "name": "token",
          "type": "address"
        },
        {
          "indexed": false,
          "internalType": "uint256",
          "name": "amount",
          "type": "uint256"
        },
        {
          "indexed": false,
          "internalType": "address",
          "name": "paymentAddress",
          "type": "address"
        },
        {
          "indexed": false,
          "internalType": "address",
          "name": "merchant",
          "type": "address"
        },
        {
          "indexed": false,
          "internalType": "uint256",
          "name": "timestamp",
          "type": "uint256"
        }
      ],
      "name": "OrderPlaced",
      "type": "event"
    },
    {
      "anonymous": false,
      "inputs": [
        {
          "indexed": true,
          "internalType": "bytes32",
          "name": "transactionId",
          "type": "bytes32"
        },
        {
          "indexed": true,
          "internalType": "address",
          "name": "merchant",
          "type": "address"
        },
        {
          "indexed": true,
          "internalType": "address",
          "name": "paymentAddress",
          "type": "address"
        },
        {
          "indexed": false,
          "internalType": "address",
          "name": "token",
          "type": "address"
        },
        {
          "indexed": false,
          "internalType": "uint256",
          "name": "amount",
          "type": "uint256"
        }
      ],
      "name": "RefundProcessed",
      "type": "event"
    },
    {
      "inputs": [
        {
          "internalType": "address",
          "name": "",
          "type": "address"
        },
        {
          "internalType": "uint256",
          "name": "",
          "type": "uint256"
        }
      ],
      "name": "MerchantOrders",
      "outputs": [
        {
          "internalType": "bytes32",
          "name": "",
          "type": "bytes32"
        }
      ],
      "stateMutability": "view",
      "type": "function"
    },
    {
      "inputs": [
        {
          "internalType": "uint256",
          "name": "",
          "type": "uint256"
        }
      ],
      "name": "OrderByIndex",
      "outputs": [
        {
          "internalType": "bytes32",
          "name": "",
          "type": "bytes32"
        }
      ],
      "stateMutability": "view",
      "type": "function"
    },
    {
      "inputs": [
        {
          "internalType": "bytes32",
          "name": "transactionId",
          "type": "bytes32"
        }
      ],
      "name": "getOrderDetails",
      "outputs": [
        {
          "components": [
            {
              "internalType": "address",
              "name": "user",
              "type": "address"
            },
            {
              "internalType": "address",
              "name": "token",
              "type": "address"
            },
            {
              "internalType": "uint256",
              "name": "amount",
              "type": "uint256"
            },
            {
              "internalType": "address",
              "name": "paymentAddress",
              "type": "address"
            },
            {
              "internalType": "address",
              "name": "merchant",
              "type": "address"
            },
            {
              "internalType": "uint256",
              "name": "timestamp",
              "type": "uint256"
            },
            {
              "internalType": "bool",
              "name": "isWithdrawn",
              "type": "bool"
            },
            {
              "internalType": "bool",
              "name": "isRefunded",
              "type": "bool"
            }
          ],
          "internalType": "struct EchoooMallPayment.Order",
          "name": "",
          "type": "tuple"
        }
      ],
      "stateMutability": "view",
      "type": "function"
    },
    {
      "inputs": [
        {
          "internalType": "address",
          "name": "merchant",
          "type": "address"
        }
      ],
      "name": "getWithdrawableOrders",
      "outputs": [
        {
          "internalType": "bytes32[]",
          "name": "",
          "type": "bytes32[]"
        }
      ],
      "stateMutability": "view",
      "type": "function"
    },
    {
      "inputs": [
        {
          "internalType": "bytes32",
          "name": "",
          "type": "bytes32"
        }
      ],
      "name": "orders",
      "outputs": [
        {
          "internalType": "address",
          "name": "user",
          "type": "address"
        },
        {
          "internalType": "address",
          "name": "token",
          "type": "address"
        },
        {
          "internalType": "uint256",
          "name": "amount",
          "type": "uint256"
        },
        {
          "internalType": "address",
          "name": "paymentAddress",
          "type": "address"
        },
        {
          "internalType": "address",
          "name": "merchant",
          "type": "address"
        },
        {
          "internalType": "uint256",
          "name": "timestamp",
          "type": "uint256"
        },
        {
          "internalType": "bool",
          "name": "isWithdrawn",
          "type": "bool"
        },
        {
          "internalType": "bool",
          "name": "isRefunded",
          "type": "bool"
        }
      ],
      "stateMutability": "view",
      "type": "function"
    },
    {
      "inputs": [],
      "name": "owner",
      "outputs": [
        {
          "internalType": "address",
          "name": "",
          "type": "address"
        }
      ],
      "stateMutability": "view",
      "type": "function"
    },
    {
      "inputs": [
        {
          "internalType": "bytes32",
          "name": "transactionId",
          "type": "bytes32"
        },
        {
          "internalType": "address",
          "name": "token",
          "type": "address"
        },
        {
          "internalType": "uint256",
          "name": "amount",
          "type": "uint256"
        },
        {
          "internalType": "address",
          "name": "merchant",
          "type": "address"
        }
      ],
      "name": "placeOrder",
      "outputs": [],
      "stateMutability": "nonpayable",
      "type": "function"
    },
    {
      "inputs": [
        {
          "internalType": "bytes32",
          "name": "transactionId",
          "type": "bytes32"
        }
      ],
      "name": "refundOrder",
      "outputs": [],
      "stateMutability": "nonpayable",
      "type": "function"
    },
    {
      "inputs": [],
      "name": "tokenRegistry",
      "outputs": [
        {
          "internalType": "contract ITokenRegistry",
          "name": "",
          "type": "address"
        }
      ],
      "stateMutability": "view",
      "type": "function"
    },
    {
      "inputs": [],
      "name": "totalOrders",
      "outputs": [
        {
          "internalType": "uint256",
          "name": "",
          "type": "uint256"
        }
      ],
      "stateMutability": "view",
      "type": "function"
    },
    {
      "inputs": [
        {
          "internalType": "address",
          "name": "registryAddress",
          "type": "address"
        }
      ],
      "name": "updateTokenRegistry",
      "outputs": [],
      "stateMutability": "nonpayable",
      "type": "function"
    },
    {
      "inputs": [
        {
          "internalType": "bytes32",
          "name": "transactionId",
          "type": "bytes32"
        },
        {
          "internalType": "address",
          "name": "recipient",
          "type": "address"
        }
      ],
      "name": "withdrawFunds",
      "outputs": [],
      "stateMutability": "nonpayable",
      "type": "function"
    }
  ],
  "bytecode": "0x608060405234801561001057600080fd5b5060405161144d38038061144d83398101604081905261002f91610062565b60048054336001600160a01b031991821617909155600580549091166001600160a01b0392909216919091179055610092565b60006020828403121561007457600080fd5b81516001600160a01b038116811461008b57600080fd5b9392505050565b6113ac806100a16000396000f3fe608060405234801561001057600080fd5b50600436106100a45760003560e01c8063024663f7146100a9578063116a1d9a146101955780631d834409146101aa5780631fa915a4146101c157806339cffedc146101d45780633dcdfa56146101e75780635c3f11e2146102075780638da5cb5b1461021a5780639c3f1e901461023a5780639d23c4c7146102f0578063c21bfad714610303578063c5d4335114610323575b600080fd5b61017f6100b7366004611052565b6040805161010081018252600080825260208201819052918101829052606081018290526080810182905260a0810182905260c0810182905260e081019190915250600090815260208181526040918290208251610100808201855282546001600160a01b039081168352600184015481169483019490945260028301549482019490945260038201548316606082015260048201549092166080830152600581015460a08301526006015460ff808216151560c0840152929004909116151560e082015290565b60405161018c919061106b565b60405180910390f35b6101a86101a3366004611052565b610336565b005b6101b360035481565b60405190815260200161018c565b6101a86101cf3660046110fc565b610511565b6101a86101e236600461111e565b610586565b6101fa6101f53660046110fc565b610934565b60405161018c9190611164565b6101b36102153660046111a8565b610c37565b60045461022d906001600160a01b031681565b60405161018c91906111d2565b6102a1610248366004611052565b60006020819052908152604090208054600182015460028301546003840154600485015460058601546006909601546001600160a01b039586169694861695939492841693909116919060ff8082169161010090041688565b604080516001600160a01b03998a168152978916602089015287019590955292861660608601529416608084015260a083019390935291151560c082015290151560e08201526101000161018c565b60055461022d906001600160a01b031681565b6101b3610311366004611052565b60016020526000908152604090205481565b6101a86103313660046111e6565b610c68565b600081815260208181526040918290208251610100808201855282546001600160a01b0390811683526001840154811694830194909452600283015494820194909452600382015483166060820152600482015490921660808301819052600582015460a084015260069091015460ff808216151560c0850152939004909216151560e08201529033146103e55760405162461bcd60e51b81526004016103dc90611212565b60405180910390fd5b8060c00151156104075760405162461bcd60e51b81526004016103dc90611249565b8060e00151156104295760405162461bcd60e51b81526004016103dc9061127a565b600081604001511161047d5760405162461bcd60e51b815260206004820152601c60248201527f4e6f2066756e647320617661696c61626c6520746f20726566756e640000000060448201526064016103dc565b60008281526020818152604091829020600601805461ff0019166101001790558201516060830151918301516104b39290610e32565b80606001516001600160a01b0316336001600160a01b0316837f14edd35b43c228ee73a0aa9df658e89732dab299e48b06fb829318c1b291d7c8846020015185604001516040516105059291906112ab565b60405180910390a45050565b6004546001600160a01b031633146105645760405162461bcd60e51b81526020600482015260166024820152752737ba103a34329031b7b73a3930b1ba1037bbb732b960511b60448201526064016103dc565b600580546001600160a01b0319166001600160a01b0392909216919091179055565b6000848152602081905260409020546001600160a01b0316156105e25760405162461bcd60e51b81526020600482015260146024820152734f7264657220616c72656164792065786973747360601b60448201526064016103dc565b600082116106325760405162461bcd60e51b815260206004820152601d60248201527f416d6f756e74206d7573742062652067726561746572207468616e203000000060448201526064016103dc565b6005546040516360af135d60e11b81526001600160a01b039091169063c15e26ba906106629086906004016111d2565b60206040518083038186803b15801561067a57600080fd5b505afa15801561068e573d6000803e3d6000fd5b505050506040513d601f19601f820116820180604052508101906106b291906112c4565b6106ee5760405162461bcd60e51b815260206004820152600d60248201526c24b73b30b634b2103a37b5b2b760991b60448201526064016103dc565b336106fb84823086610f42565b604051806101000160405280826001600160a01b03168152602001856001600160a01b03168152602001848152602001826001600160a01b03168152602001836001600160a01b031681526020014281526020016000151581526020016000151581525060008087815260200190815260200160002060008201518160000160006101000a8154816001600160a01b0302191690836001600160a01b0316021790555060208201518160010160006101000a8154816001600160a01b0302191690836001600160a01b031602179055506040820151816002015560608201518160030160006101000a8154816001600160a01b0302191690836001600160a01b0316021790555060808201518160040160006101000a8154816001600160a01b0302191690836001600160a01b0316021790555060a0820151816005015560c08201518160060160006101000a81548160ff02191690831515021790555060e08201518160060160016101000a81548160ff021916908315150217905550905050846001600060036000815480929190610894906112e6565b90915550815260208082019290925260409081016000908120939093556001600160a01b0385811680855260028452828520805460018101825590865294849020909401899055815188821681529283018790528416908201526060810191909152426080820152339086907f7e58762c2ddd6b97645bfb18478e1485156480ba05bb4fbdbcddb8673b80b6b49060a00160405180910390a35050505050565b60606000805b6001600160a01b038416600090815260026020526040902054811015610a65576001600160a01b0384166000908152600260205260408120805482918291859081106109885761098861130f565b6000918252602080832090910154835282810193909352604091820190208151610100808201845282546001600160a01b03908116835260018401548116958301959095526002830154938201939093526003820154841660608201526004820154841660808201819052600583015460a083015260069092015460ff808216151560c0840152939004909216151560e0830152909250908616148015610a3157508060c00151155b8015610a3f57508060e00151155b15610a525782610a4e816112e6565b9350505b5080610a5d816112e6565b91505061093a565b506000808267ffffffffffffffff811115610a8257610a82611325565b604051908082528060200260200182016040528015610aab578160200160208202803683370190505b50905060005b6001600160a01b038616600090815260026020526040902054811015610c2e576001600160a01b038616600090815260026020526040812080548291829185908110610aff57610aff61130f565b6000918252602080832090910154835282810193909352604091820190208151610100808201845282546001600160a01b03908116835260018401548116958301959095526002830154938201939093526003820154841660608201526004820154841660808201819052600583015460a083015260069092015460ff808216151560c0840152939004909216151560e0830152909250908816148015610ba857508060c00151155b8015610bb657508060e00151155b15610c1b576001600160a01b0387166000908152600260205260409020805483908110610be557610be561130f565b9060005260206000200154838581518110610c0257610c0261130f565b602090810291909101015283610c17816112e6565b9450505b5080610c26816112e6565b915050610ab1565b50949350505050565b60026020528160005260406000208181548110610c5357600080fd5b90600052602060002001600091509150505481565b600082815260208181526040918290208251610100808201855282546001600160a01b0390811683526001840154811694830194909452600283015494820194909452600382015483166060820152600482015490921660808301819052600582015460a084015260069091015460ff808216151560c0850152939004909216151560e0820152903314610d0e5760405162461bcd60e51b81526004016103dc90611212565b8060c0015115610d305760405162461bcd60e51b81526004016103dc90611249565b8060e0015115610d525760405162461bcd60e51b81526004016103dc9061127a565b6000816040015111610da65760405162461bcd60e51b815260206004820152601e60248201527f4e6f2066756e647320617661696c61626c6520746f207769746864726177000060448201526064016103dc565b60008381526020818152604091829020600601805460ff1916600117905582015190820151610dd791908490610e32565b816001600160a01b0316336001600160a01b0316847f214bb2ab6f1f32a9540ccb6f594ba53668a5899918539a34252f62b574257d8b84602001518560400151604051610e259291906112ab565b60405180910390a4505050565b600080846001600160a01b031663a9059cbb60e01b8585604051602401610e5a9291906112ab565b60408051601f198184030181529181526020820180516001600160e01b03166001600160e01b0319909416939093179092529051610e98919061133b565b6000604051808303816000865af19150503d8060008114610ed5576040519150601f19603f3d011682016040523d82523d6000602084013e610eda565b606091505b5091509150818015610f04575080511580610f04575080806020019051810190610f0491906112c4565b610f3b5760405162461bcd60e51b815260206004820152600860248201526712995d1bdb8e94d560c21b60448201526064016103dc565b5050505050565b604080516001600160a01b0385811660248301528481166044830152606480830185905283518084039091018152608490920183526020820180516001600160e01b03166323b872dd60e01b1790529151600092839290881691610fa6919061133b565b6000604051808303816000865af19150503d8060008114610fe3576040519150601f19603f3d011682016040523d82523d6000602084013e610fe8565b606091505b509150915081801561101257508051158061101257508080602001905181019061101291906112c4565b61104a5760405162461bcd60e51b81526020600482015260096024820152682532ba37b71d29aa2360b91b60448201526064016103dc565b505050505050565b60006020828403121561106457600080fd5b5035919050565b60006101008201905060018060a01b03808451168352806020850151166020840152604084015160408401528060608501511660608401528060808501511660808401525060a083015160a083015260c0830151151560c083015260e08301516110d960e084018215159052565b5092915050565b80356001600160a01b03811681146110f757600080fd5b919050565b60006020828403121561110e57600080fd5b611117826110e0565b9392505050565b6000806000806080858703121561113457600080fd5b84359350611144602086016110e0565b925060408501359150611159606086016110e0565b905092959194509250565b6020808252825182820181905260009190848201906040850190845b8181101561119c57835183529284019291840191600101611180565b50909695505050505050565b600080604083850312156111bb57600080fd5b6111c4836110e0565b946020939093013593505050565b6001600160a01b0391909116815260200190565b600080604083850312156111f957600080fd5b82359150611209602084016110e0565b90509250929050565b6020808252601f908201527f4e6f7420746865206d65726368616e7420666f722074686973206f7264657200604082015260600190565b602080825260179082015276233ab732399030b63932b0b23c903bb4ba34323930bbb760491b604082015260600190565b60208082526017908201527613dc99195c881a185cc81899595b881c99599d5b991959604a1b604082015260600190565b6001600160a01b03929092168252602082015260400190565b6000602082840312156112d657600080fd5b8151801515811461111757600080fd5b600060001982141561130857634e487b7160e01b600052601160045260246000fd5b5060010190565b634e487b7160e01b600052603260045260246000fd5b634e487b7160e01b600052604160045260246000fd5b6000825160005b8181101561135c5760208186018101518583015201611342565b8181111561136b576000828501525b50919091019291505056fea2646970667358221220fd75a86b4476b51b1933a4c0631456207897550da10aa29aaec46578021f854c64736f6c63430008090033",
  "linkReferences": {},
  "deployedLinkReferences": {}
}