{
  "_format": "hh-sol-artifact-1",
  "contractName": "EchoooMallPayment",
  "sourceName": "contracts/EchoooMallPayment.sol",
  "abi": [
    {
      "inputs": [
        {
          "internalType": "address",
          "name": "registryAddress",
          "type": "address"
        }
      ],
      "stateMutability": "nonpayable",
      "type": "constructor"
    },
    {
      "anonymous": false,
      "inputs": [
        {
          "indexed": true,
          "internalType": "bytes32",
          "name": "transactionId",
          "type": "bytes32"
        },
        {
          "indexed": true,
          "internalType": "address",
          "name": "merchant",
          "type": "address"
        },
        {
          "indexed": true,
          "internalType": "address",
          "name": "paymentAddress",
          "type": "address"
        },
        {
          "indexed": false,
          "internalType": "address",
          "name": "token",
          "type": "address"
        },
        {
          "indexed": false,
          "internalType": "uint256",
          "name": "amount",
          "type": "uint256"
        }
      ],
      "name": "FullRefund",
      "type": "event"
    },
    {
      "anonymous": false,
      "inputs": [
        {
          "indexed": true,
          "internalType": "bytes32",
          "name": "transactionId",
          "type": "bytes32"
        },
        {
          "indexed": true,
          "internalType": "address",
          "name": "merchant",
          "type": "address"
        },
        {
          "indexed": true,
          "internalType": "address",
          "name": "recipient",
          "type": "address"
        },
        {
          "indexed": false,
          "internalType": "address",
          "name": "token",
          "type": "address"
        },
        {
          "indexed": false,
          "internalType": "uint256",
          "name": "amount",
          "type": "uint256"
        }
      ],
      "name": "FundsWithdrawn",
      "type": "event"
    },
    {
      "anonymous": false,
      "inputs": [
        {
          "indexed": true,
          "internalType": "bytes32",
          "name": "transactionId",
          "type": "bytes32"
        },
        {
          "indexed": true,
          "internalType": "address",
          "name": "user",
          "type": "address"
        },
        {
          "indexed": false,
          "internalType": "address",
          "name": "token",
          "type": "address"
        },
        {
          "indexed": false,
          "internalType": "uint256",
          "name": "amount",
          "type": "uint256"
        },
        {
          "indexed": false,
          "internalType": "address",
          "name": "paymentAddress",
          "type": "address"
        },
        {
          "indexed": false,
          "internalType": "address",
          "name": "merchant",
          "type": "address"
        },
        {
          "indexed": false,
          "internalType": "uint256",
          "name": "timestamp",
          "type": "uint256"
        }
      ],
      "name": "OrderPlaced",
      "type": "event"
    },
    {
      "anonymous": false,
      "inputs": [
        {
          "indexed": true,
          "internalType": "bytes32",
          "name": "transactionId",
          "type": "bytes32"
        },
        {
          "indexed": true,
          "internalType": "address",
          "name": "merchant",
          "type": "address"
        },
        {
          "indexed": true,
          "internalType": "address",
          "name": "paymentAddress",
          "type": "address"
        },
        {
          "indexed": false,
          "internalType": "address",
          "name": "token",
          "type": "address"
        },
        {
          "indexed": false,
          "internalType": "uint256",
          "name": "amount",
          "type": "uint256"
        }
      ],
      "name": "RefundProcessed",
      "type": "event"
    },
    {
      "anonymous": false,
      "inputs": [
        {
          "indexed": true,
          "internalType": "address",
          "name": "merchant",
          "type": "address"
        },
        {
          "indexed": true,
          "internalType": "bytes32",
          "name": "transactionId",
          "type": "bytes32"
        }
      ],
      "name": "TransactionLocked",
      "type": "event"
    },
    {
      "anonymous": false,
      "inputs": [
        {
          "indexed": true,
          "internalType": "address",
          "name": "merchant",
          "type": "address"
        },
        {
          "indexed": true,
          "internalType": "bytes32",
          "name": "transactionId",
          "type": "bytes32"
        }
      ],
      "name": "TransactionUnlocked",
      "type": "event"
    },
    {
      "anonymous": false,
      "inputs": [
        {
          "indexed": true,
          "internalType": "address",
          "name": "user",
          "type": "address"
        },
        {
          "indexed": true,
          "internalType": "address",
          "name": "merchant",
          "type": "address"
        }
      ],
      "name": "UserUnlocked",
      "type": "event"
    },
    {
      "anonymous": false,
      "inputs": [
        {
          "indexed": true,
          "internalType": "address",
          "name": "user",
          "type": "address"
        },
        {
          "indexed": true,
          "internalType": "address",
          "name": "merchant",
          "type": "address"
        }
      ],
      "name": "Userlocked",
      "type": "event"
    },
    {
      "inputs": [
        {
          "internalType": "address",
          "name": "",
          "type": "address"
        },
        {
          "internalType": "uint256",
          "name": "",
          "type": "uint256"
        }
      ],
      "name": "MerchantOrders",
      "outputs": [
        {
          "internalType": "bytes32",
          "name": "",
          "type": "bytes32"
        }
      ],
      "stateMutability": "view",
      "type": "function"
    },
    {
      "inputs": [
        {
          "internalType": "uint256",
          "name": "",
          "type": "uint256"
        }
      ],
      "name": "OrderByIndex",
      "outputs": [
        {
          "internalType": "bytes32",
          "name": "",
          "type": "bytes32"
        }
      ],
      "stateMutability": "view",
      "type": "function"
    },
    {
      "inputs": [
        {
          "internalType": "address",
          "name": "",
          "type": "address"
        },
        {
          "internalType": "address",
          "name": "",
          "type": "address"
        }
      ],
      "name": "blackList",
      "outputs": [
        {
          "internalType": "bool",
          "name": "",
          "type": "bool"
        }
      ],
      "stateMutability": "view",
      "type": "function"
    },
    {
      "inputs": [],
      "name": "getAllLockedTransactionCount",
      "outputs": [
        {
          "internalType": "uint256",
          "name": "",
          "type": "uint256"
        }
      ],
      "stateMutability": "view",
      "type": "function"
    },
    {
      "inputs": [],
      "name": "getAllLockedTransactions",
      "outputs": [
        {
          "internalType": "bytes32[]",
          "name": "",
          "type": "bytes32[]"
        }
      ],
      "stateMutability": "view",
      "type": "function"
    },
    {
      "inputs": [
        {
          "internalType": "bytes32",
          "name": "transactionId",
          "type": "bytes32"
        }
      ],
      "name": "getOrderDetails",
      "outputs": [
        {
          "components": [
            {
              "internalType": "address",
              "name": "user",
              "type": "address"
            },
            {
              "internalType": "address",
              "name": "token",
              "type": "address"
            },
            {
              "internalType": "uint256",
              "name": "totalAmount",
              "type": "uint256"
            },
            {
              "internalType": "uint256",
              "name": "paidAmount",
              "type": "uint256"
            },
            {
              "internalType": "address",
              "name": "paymentAddress",
              "type": "address"
            },
            {
              "internalType": "address",
              "name": "merchant",
              "type": "address"
            },
            {
              "internalType": "uint256",
              "name": "timestamp",
              "type": "uint256"
            },
            {
              "internalType": "uint256",
              "name": "refundedAmount",
              "type": "uint256"
            },
            {
              "internalType": "bool",
              "name": "isWithdrawn",
              "type": "bool"
            },
            {
              "internalType": "bool",
              "name": "isRefunded",
              "type": "bool"
            },
            {
              "internalType": "bool",
              "name": "isLocked",
              "type": "bool"
            }
          ],
          "internalType": "struct EchoooMallOrder.Order",
          "name": "",
          "type": "tuple"
        }
      ],
      "stateMutability": "view",
      "type": "function"
    },
    {
      "inputs": [
        {
          "internalType": "address",
          "name": "merchant",
          "type": "address"
        }
      ],
      "name": "getWithdrawableOrders",
      "outputs": [
        {
          "internalType": "bytes32[]",
          "name": "",
          "type": "bytes32[]"
        }
      ],
      "stateMutability": "view",
      "type": "function"
    },
    {
      "inputs": [
        {
          "internalType": "bytes32",
          "name": "transactionId",
          "type": "bytes32"
        }
      ],
      "name": "lockTransaction",
      "outputs": [],
      "stateMutability": "nonpayable",
      "type": "function"
    },
    {
      "inputs": [
        {
          "internalType": "address",
          "name": "user",
          "type": "address"
        }
      ],
      "name": "lockUser",
      "outputs": [],
      "stateMutability": "nonpayable",
      "type": "function"
    },
    {
      "inputs": [
        {
          "internalType": "uint256",
          "name": "",
          "type": "uint256"
        }
      ],
      "name": "lockedTransactions",
      "outputs": [
        {
          "internalType": "bytes32",
          "name": "",
          "type": "bytes32"
        }
      ],
      "stateMutability": "view",
      "type": "function"
    },
    {
      "inputs": [
        {
          "internalType": "bytes32",
          "name": "",
          "type": "bytes32"
        }
      ],
      "name": "orders",
      "outputs": [
        {
          "internalType": "address",
          "name": "user",
          "type": "address"
        },
        {
          "internalType": "address",
          "name": "token",
          "type": "address"
        },
        {
          "internalType": "uint256",
          "name": "totalAmount",
          "type": "uint256"
        },
        {
          "internalType": "uint256",
          "name": "paidAmount",
          "type": "uint256"
        },
        {
          "internalType": "address",
          "name": "paymentAddress",
          "type": "address"
        },
        {
          "internalType": "address",
          "name": "merchant",
          "type": "address"
        },
        {
          "internalType": "uint256",
          "name": "timestamp",
          "type": "uint256"
        },
        {
          "internalType": "uint256",
          "name": "refundedAmount",
          "type": "uint256"
        },
        {
          "internalType": "bool",
          "name": "isWithdrawn",
          "type": "bool"
        },
        {
          "internalType": "bool",
          "name": "isRefunded",
          "type": "bool"
        },
        {
          "internalType": "bool",
          "name": "isLocked",
          "type": "bool"
        }
      ],
      "stateMutability": "view",
      "type": "function"
    },
    {
      "inputs": [],
      "name": "owner",
      "outputs": [
        {
          "internalType": "address",
          "name": "",
          "type": "address"
        }
      ],
      "stateMutability": "view",
      "type": "function"
    },
    {
      "inputs": [
        {
          "internalType": "bytes32",
          "name": "transactionId",
          "type": "bytes32"
        },
        {
          "internalType": "address",
          "name": "token",
          "type": "address"
        },
        {
          "internalType": "uint256",
          "name": "totalAmount",
          "type": "uint256"
        },
        {
          "internalType": "uint256",
          "name": "actualAmount",
          "type": "uint256"
        },
        {
          "internalType": "address",
          "name": "merchant",
          "type": "address"
        }
      ],
      "name": "placeOrder",
      "outputs": [],
      "stateMutability": "nonpayable",
      "type": "function"
    },
    {
      "inputs": [
        {
          "internalType": "bytes32",
          "name": "transactionId",
          "type": "bytes32"
        },
        {
          "internalType": "uint256",
          "name": "refundAmount",
          "type": "uint256"
        },
        {
          "internalType": "enum EchoooMallOrder.RefundType",
          "name": "PaymentMethod",
          "type": "uint8"
        }
      ],
      "name": "refundOrder",
      "outputs": [],
      "stateMutability": "nonpayable",
      "type": "function"
    },
    {
      "inputs": [
        {
          "internalType": "bytes32[]",
          "name": "transactionIds",
          "type": "bytes32[]"
        },
        {
          "internalType": "enum EchoooMallOrder.RefundType",
          "name": "PaymentMethod",
          "type": "uint8"
        }
      ],
      "name": "refundOrdersBatch",
      "outputs": [],
      "stateMutability": "nonpayable",
      "type": "function"
    },
    {
      "inputs": [
        {
          "internalType": "bytes32[]",
          "name": "transactionIds",
          "type": "bytes32[]"
        },
        {
          "internalType": "uint256[]",
          "name": "amounts",
          "type": "uint256[]"
        },
        {
          "internalType": "enum EchoooMallOrder.RefundType",
          "name": "PaymentMethod",
          "type": "uint8"
        }
      ],
      "name": "refundOrdersBatchFromMerchant",
      "outputs": [],
      "stateMutability": "nonpayable",
      "type": "function"
    },
    {
      "inputs": [],
      "name": "tokenRegistry",
      "outputs": [
        {
          "internalType": "contract ITokenRegistry",
          "name": "",
          "type": "address"
        }
      ],
      "stateMutability": "view",
      "type": "function"
    },
    {
      "inputs": [],
      "name": "totalOrders",
      "outputs": [
        {
          "internalType": "uint256",
          "name": "",
          "type": "uint256"
        }
      ],
      "stateMutability": "view",
      "type": "function"
    },
    {
      "inputs": [
        {
          "internalType": "bytes32",
          "name": "transactionId",
          "type": "bytes32"
        }
      ],
      "name": "unlockTransaction",
      "outputs": [],
      "stateMutability": "nonpayable",
      "type": "function"
    },
    {
      "inputs": [
        {
          "internalType": "address",
          "name": "user",
          "type": "address"
        }
      ],
      "name": "unlockUser",
      "outputs": [],
      "stateMutability": "nonpayable",
      "type": "function"
    },
    {
      "inputs": [
        {
          "internalType": "address",
          "name": "registryAddress",
          "type": "address"
        }
      ],
      "name": "updateTokenRegistry",
      "outputs": [],
      "stateMutability": "nonpayable",
      "type": "function"
    },
    {
      "inputs": [
        {
          "internalType": "bytes32",
          "name": "transactionId",
          "type": "bytes32"
        },
        {
          "internalType": "address",
          "name": "recipient",
          "type": "address"
        }
      ],
      "name": "withdrawFunds",
      "outputs": [],
      "stateMutability": "nonpayable",
      "type": "function"
    },
    {
      "inputs": [
        {
          "internalType": "bytes32[]",
          "name": "transactionIds",
          "type": "bytes32[]"
        },
        {
          "internalType": "address",
          "name": "recipient",
          "type": "address"
        }
      ],
      "name": "withdrawFundsBatch",
      "outputs": [],
      "stateMutability": "nonpayable",
      "type": "function"
    }
  ],
  "bytecode": "0x608060405234801561001057600080fd5b50604051620022c9380380620022c983398101604081905261003191610064565b60068054336001600160a01b031991821617909155600780549091166001600160a01b0392909216919091179055610094565b60006020828403121561007657600080fd5b81516001600160a01b038116811461008d57600080fd5b9392505050565b61222580620000a46000396000f3fe608060405234801561001057600080fd5b506004361061012d5760003560e01c80638da5cb5b116100b35780638da5cb5b146103435780639c3f1e90146103635780639d23c4c71461044b578063bd1870a31461045e578063c21bfad714610471578063c57bb4af14610491578063c5d43351146104a4578063d7972580146104b7578063ddb2a3e2146104ca578063e1a8004c146104dd578063e3f2178d146104f0578063fb97a1871461050357600080fd5b8063024663f714610132578063034254c91461025d5780630db9bd611461029b5780631d834409146102b05780631fa915a4146102c75780632133dba0146102da5780633dcdfa56146102ef57806356e082a4146103025780635b6795c51461030a5780635c3f11e21461031d5780636d368e2414610330575b600080fd5b610247610140366004611bfb565b6040805161016081018252600080825260208201819052918101829052606081018290526080810182905260a0810182905260c0810182905260e0810182905261010081018290526101208101829052610140810191909152506000908152602081815260409182902082516101608101845281546001600160a01b039081168252600183015481169382019390935260028201549381019390935260038101546060840152600481015482166080840152600581015490911660a0830152600681015460c0830152600781015460e08301526008015460ff8082161515610100808501919091528204811615156101208401526201000090910416151561014082015290565b6040516102549190611c21565b60405180910390f35b61028b61026b366004611ce9565b600360209081526000928352604080842090915290825290205460ff1681565b6040519015158152602001610254565b6102ae6102a9366004611d67565b610516565b005b6102b960045481565b604051908152602001610254565b6102ae6102d5366004611dba565b61055b565b6102e26105d5565b6040516102549190611ddc565b6102e26102fd366004611dba565b61062d565b6005546102b9565b6102ae610318366004611e20565b610981565b6102b961032b366004611e70565b610de3565b6102ae61033e366004611ea9565b610e14565b600654610356906001600160a01b031681565b6040516102549190611ef3565b6103e2610371366004611bfb565b6000602081905290815260409020805460018201546002830154600384015460048501546005860154600687015460078801546008909801546001600160a01b03978816989688169795969495938416949390921692909160ff80821691610100810482169162010000909104168b565b604080516001600160a01b039c8d1681529a8c1660208c01528a0198909852606089019690965293881660808801529690911660a086015260c085015260e084019490945292151561010083015291151561012082015290151561014082015261016001610254565b600754610356906001600160a01b031681565b6102ae61046c366004611dba565b610f2a565b6102b961047f366004611bfb565b60016020526000908152604090205481565b6102ae61049f366004611bfb565b610fc6565b6102ae6104b2366004611f07565b611115565b6102ae6104c5366004611dba565b61137a565b6102b96104d8366004611bfb565b61141c565b6102ae6104eb366004611f2a565b61143d565b6102ae6104fe366004611f56565b611772565b6102ae610511366004611bfb565b611813565b60005b828110156105555761054384848381811061053657610536611fca565b9050602002013583611115565b8061054d81611ff6565b915050610519565b50505050565b6006546001600160a01b031633146105b35760405162461bcd60e51b81526020600482015260166024820152752737ba103a34329031b7b73a3930b1ba1037bbb732b960511b60448201526064015b60405180910390fd5b600780546001600160a01b0319166001600160a01b0392909216919091179055565b6060600580548060200260200160405190810160405280929190818152602001828054801561062357602002820191906000526020600020905b81548152602001906001019080831161060f575b5050505050905090565b60606000805b6001600160a01b038416600090815260026020526040902054811015610787576001600160a01b03841660009081526002602052604081208054829182918590811061068157610681611fca565b60009182526020808320909101548352828101939093526040918201902081516101608101835281546001600160a01b0390811682526001830154811694820194909452600282015492810192909252600381015460608301526004810154831660808301526005810154831660a08301819052600682015460c0840152600782015460e084015260089091015460ff808216151561010080860191909152820481161515610120850152620100009091041615156101408301529092509086161480156107525750806101000151155b80156107615750806101200151155b15610774578261077081611ff6565b9350505b508061077f81611ff6565b915050610633565b50600080826001600160401b038111156107a3576107a3612011565b6040519080825280602002602001820160405280156107cc578160200160208202803683370190505b50905060005b6001600160a01b038616600090815260026020526040902054811015610978576001600160a01b03861660009081526002602052604081208054829182918590811061082057610820611fca565b60009182526020808320909101548352828101939093526040918201902081516101608101835281546001600160a01b0390811682526001830154811694820194909452600282015492810192909252600381015460608301526004810154831660808301526005810154831660a08301819052600682015460c0840152600782015460e084015260089091015460ff808216151561010080860191909152820481161515610120850152620100009091041615156101408301529092509088161480156108f15750806101000151155b80156109005750806101200151155b15610965576001600160a01b038716600090815260026020526040902080548390811061092f5761092f611fca565b906000526020600020015483858151811061094c5761094c611fca565b60209081029190910101528361096181611ff6565b9450505b508061097081611ff6565b9150506107d2565b50949350505050565b6000858152602081905260409020546001600160a01b0316156109dd5760405162461bcd60e51b81526020600482015260146024820152734f7264657220616c72656164792065786973747360601b60448201526064016105aa565b60008211610a2d5760405162461bcd60e51b815260206004820152601d60248201527f416d6f756e74206d7573742062652067726561746572207468616e203000000060448201526064016105aa565b6007546040516360af135d60e11b81526001600160a01b039091169063c15e26ba90610a5d908790600401611ef3565b60206040518083038186803b158015610a7557600080fd5b505afa158015610a89573d6000803e3d6000fd5b505050506040513d601f19601f82011682018060405250810190610aad9190612027565b610ae95760405162461bcd60e51b815260206004820152600d60248201526c24b73b30b634b2103a37b5b2b760991b60448201526064016105aa565b3360008181526003602090815260408083206001600160a01b038616845290915290205460ff1615610b505760405162461bcd60e51b815260206004820152601060248201526f125b881d1a1948189b1858dadb1a5cdd60821b60448201526064016105aa565b610b5c858230866119e3565b604051806101600160405280826001600160a01b03168152602001866001600160a01b03168152602001858152602001848152602001826001600160a01b03168152602001836001600160a01b03168152602001428152602001600081526020016000151581526020016000151581526020016000151581525060008088815260200190815260200160002060008201518160000160006101000a8154816001600160a01b0302191690836001600160a01b0316021790555060208201518160010160006101000a8154816001600160a01b0302191690836001600160a01b03160217905550604082015181600201556060820151816003015560808201518160040160006101000a8154816001600160a01b0302191690836001600160a01b0316021790555060a08201518160050160006101000a8154816001600160a01b0302191690836001600160a01b0316021790555060c0820151816006015560e082015181600701556101008201518160080160006101000a81548160ff0219169083151502179055506101208201518160080160016101000a81548160ff0219169083151502179055506101408201518160080160026101000a81548160ff021916908315150217905550905050856001600060046000815480929190610d4290611ff6565b90915550815260208082019290925260409081016000908120939093556001600160a01b03858116808552600284528285208054600181018255908652948490209094018a9055815189821681529283018790528416908201526060810191909152426080820152339087907f7e58762c2ddd6b97645bfb18478e1485156480ba05bb4fbdbcddb8673b80b6b49060a00160405180910390a3505050505050565b60026020528160005260406000208181548110610dff57600080fd5b90600052602060002001600091509150505481565b60005b82811015610555576000806000868685818110610e3657610e36611fca565b6020908102929092013583525081810192909252604090810160002081516101608101835281546001600160a01b039081168252600183015481169482019490945260028201549281019290925260038101546060830152600481015483166080830152600581015490921660a0820152600682015460c0820152600782015460e082015260089091015460ff808216151561010080850191909152820481161515610120840152620100009091041615156101408201529050610f17858584818110610f0557610f05611fca565b9050602002013582606001518561143d565b5080610f2281611ff6565b915050610e17565b6001600160a01b03811660009081526003602090815260408083203380855292529091205460ff16610f955760405162461bcd60e51b8152602060048201526014602482015273139bdd081a5b881d1a1948189b1858dadb1a5cdd60621b60448201526064016105aa565b6001600160a01b0391821660009081526003602090815260408083209390941682529190915220805460ff19169055565b600081815260208190526040902060058101546001600160a01b031633146110445760405162461bcd60e51b815260206004820152602b60248201527f4f6e6c7920746865206d65726368616e742063616e206c6f636b20746869732060448201526a3a3930b739b0b1ba34b7b760a91b60648201526084016105aa565b600881015462010000900460ff161561109f5760405162461bcd60e51b815260206004820152601d60248201527f5472616e73616374696f6e20697320616c7265616479206c6f636b656400000060448201526064016105aa565b60088101805462ff00001916620100001790556005805460018101825560009182527f036b6384b5eca791c62761152d0c79bb0604c104a5fb6f4eb0703f3154bb3db001839055604051839133917fced1fafa2c6a47c5ac7b08abf7318db470f03158c0f9ceda08c3e9201a7b33679190a35050565b6000828152602081815260409182902082516101608101845281546001600160a01b039081168252600183015481169382019390935260028201549381019390935260038101546060840152600481015482166080840152600581015490911660a08301819052600682015460c0840152600782015460e084015260089091015460ff8082161515610100808601919091528204811615156101208501526201000090910416151561014083015233146111e15760405162461bcd60e51b81526004016105aa90612049565b806101000151156112045760405162461bcd60e51b81526004016105aa90612080565b806101200151156112275760405162461bcd60e51b81526004016105aa906120b1565b8061014001511561124a5760405162461bcd60e51b81526004016105aa906120e2565b600081606001511161129e5760405162461bcd60e51b815260206004820152601e60248201527f4e6f2066756e647320617661696c61626c6520746f207769746864726177000060448201526064016105aa565b60808101516001600160a01b03908116600090815260036020908152604080832060a08601519094168352929052205460ff16156112ee5760405162461bcd60e51b81526004016105aa90612111565b600083815260208181526040909120600801805460ff19166001179055810151606082015161131f91908490611aeb565b816001600160a01b0316336001600160a01b0316847f214bb2ab6f1f32a9540ccb6f594ba53668a5899918539a34252f62b574257d8b8460200151856060015160405161136d929190612140565b60405180910390a4505050565b6001600160a01b03811660009081526003602090815260408083203380855292529091205460ff16156113e85760405162461bcd60e51b81526020600482015260166024820152751059191959081d1bc81d1a1948189b1858dadb1a5cdd60521b60448201526064016105aa565b6001600160a01b0391821660009081526003602090815260408083209390941682529190915220805460ff19166001179055565b6005818154811061142c57600080fd5b600091825260209091200154905081565b6000838152602081815260409182902082516101608101845281546001600160a01b039081168252600183015481169382019390935260028201549381019390935260038101546060840152600481015482166080840152600581015490911660a08301819052600682015460c0840152600782015460e084015260089091015460ff8082161515610100808601919091528204811615156101208501526201000090910416151561014083015233146115095760405162461bcd60e51b81526004016105aa90612049565b8061010001511561152c5760405162461bcd60e51b81526004016105aa90612080565b8061012001511561154f5760405162461bcd60e51b81526004016105aa906120b1565b806101400151156115725760405162461bcd60e51b81526004016105aa906120e2565b60808101516001600160a01b03908116600090815260036020908152604080832060a08601519094168352929052205460ff16156115c25760405162461bcd60e51b81526004016105aa90612111565b828160e0018181516115d49190612159565b905250606081015160e0820151111561162f5760405162461bcd60e51b815260206004820152601f60248201527f416d6f756e74206578636565647320746865206f7264657220616d6f756e740060448201526064016105aa565b600082600181111561164357611643612171565b14156116615761165c8160200151826080015185611aeb565b611675565b6116758160200151338360800151866119e3565b60e0810180516000868152602081905260409020600701556060820151905114156117125760008481526020818152604091829020600801805461ff001916610100179055608083015190830151606084015192516001600160a01b0390921692339288927fb3fb00976a6b099e111306d7fbb637c3cbc7f7f9e87d7d03e4e560c1c885dcfd9261170592612140565b60405180910390a4610555565b80608001516001600160a01b0316336001600160a01b0316857f14edd35b43c228ee73a0aa9df658e89732dab299e48b06fb829318c1b291d7c884602001518560600151604051611764929190612140565b60405180910390a450505050565b8382146117b35760405162461bcd60e51b815260206004820152600f60248201526e098cadccee8d0409ad2e6dac2e8c6d608b1b60448201526064016105aa565b60005b8481101561180b576117f98686838181106117d3576117d3611fca565b905060200201358585848181106117ec576117ec611fca565b905060200201358461143d565b8061180381611ff6565b9150506117b6565b505050505050565b600081815260208190526040902060058101546001600160a01b031633146118935760405162461bcd60e51b815260206004820152602d60248201527f4f6e6c7920746865206d65726368616e742063616e20756e6c6f636b2074686960448201526c39903a3930b739b0b1ba34b7b760991b60648201526084016105aa565b600881015462010000900460ff166118e95760405162461bcd60e51b8152602060048201526019602482015278151c985b9cd858dd1a5bdb881a5cc81b9bdd081b1bd8dad959603a1b60448201526064016105aa565b60088101805462ff00001916905560005b6005548110156119b157826005828154811061191857611918611fca565b9060005260206000200154141561199f576005805461193990600190612187565b8154811061194957611949611fca565b90600052602060002001546005828154811061196757611967611fca565b60009182526020909120015560058054806119845761198461219e565b600190038181906000526020600020016000905590556119b1565b806119a981611ff6565b9150506118fa565b50604051829033907fe18e9c4f686dbec85af18a02d4409a5f3fe1680455ec4e3f88c78f5b4ee8fbb690600090a35050565b604080516001600160a01b0385811660248301528481166044830152606480830185905283518084039091018152608490920183526020820180516001600160e01b03166323b872dd60e01b1790529151600092839290881691611a4791906121b4565b6000604051808303816000865af19150503d8060008114611a84576040519150601f19603f3d011682016040523d82523d6000602084013e611a89565b606091505b5091509150818015611ab3575080511580611ab3575080806020019051810190611ab39190612027565b61180b5760405162461bcd60e51b81526020600482015260096024820152682532ba37b71d29aa2360b91b60448201526064016105aa565b600080846001600160a01b031663a9059cbb60e01b8585604051602401611b13929190612140565b60408051601f198184030181529181526020820180516001600160e01b03166001600160e01b0319909416939093179092529051611b5191906121b4565b6000604051808303816000865af19150503d8060008114611b8e576040519150601f19603f3d011682016040523d82523d6000602084013e611b93565b606091505b5091509150818015611bbd575080511580611bbd575080806020019051810190611bbd9190612027565b611bf45760405162461bcd60e51b815260206004820152600860248201526712995d1bdb8e94d560c21b60448201526064016105aa565b5050505050565b600060208284031215611c0d57600080fd5b5035919050565b6001600160a01b03169052565b600061016082019050611c35828451611c14565b6020830151611c476020840182611c14565b5060408301516040830152606083015160608301526080830151611c6e6080840182611c14565b5060a0830151611c8160a0840182611c14565b5060c083015160c083015260e083015160e083015261010080840151611caa8285018215159052565b505061012083810151151590830152610140928301511515929091019190915290565b80356001600160a01b0381168114611ce457600080fd5b919050565b60008060408385031215611cfc57600080fd5b611d0583611ccd565b9150611d1360208401611ccd565b90509250929050565b60008083601f840112611d2e57600080fd5b5081356001600160401b03811115611d4557600080fd5b6020830191508360208260051b8501011115611d6057600080fd5b9250929050565b600080600060408486031215611d7c57600080fd5b83356001600160401b03811115611d9257600080fd5b611d9e86828701611d1c565b9094509250611db1905060208501611ccd565b90509250925092565b600060208284031215611dcc57600080fd5b611dd582611ccd565b9392505050565b6020808252825182820181905260009190848201906040850190845b81811015611e1457835183529284019291840191600101611df8565b50909695505050505050565b600080600080600060a08688031215611e3857600080fd5b85359450611e4860208701611ccd565b93506040860135925060608601359150611e6460808701611ccd565b90509295509295909350565b60008060408385031215611e8357600080fd5b611e8c83611ccd565b946020939093013593505050565b803560028110611ce457600080fd5b600080600060408486031215611ebe57600080fd5b83356001600160401b03811115611ed457600080fd5b611ee086828701611d1c565b9094509250611db1905060208501611e9a565b6001600160a01b0391909116815260200190565b60008060408385031215611f1a57600080fd5b82359150611d1360208401611ccd565b600080600060608486031215611f3f57600080fd5b8335925060208401359150611db160408501611e9a565b600080600080600060608688031215611f6e57600080fd5b85356001600160401b0380821115611f8557600080fd5b611f9189838a01611d1c565b90975095506020880135915080821115611faa57600080fd5b50611fb788828901611d1c565b9094509250611e64905060408701611e9a565b634e487b7160e01b600052603260045260246000fd5b634e487b7160e01b600052601160045260246000fd5b600060001982141561200a5761200a611fe0565b5060010190565b634e487b7160e01b600052604160045260246000fd5b60006020828403121561203957600080fd5b81518015158114611dd557600080fd5b6020808252601f908201527f4e6f7420746865206d65726368616e7420666f722074686973206f7264657200604082015260600190565b602080825260179082015276233ab732399030b63932b0b23c903bb4ba34323930bbb760491b604082015260600190565b60208082526017908201527613dc99195c881a185cc81899595b881c99599d5b991959604a1b604082015260600190565b602080825260159082015274151c985b9cd858dd1a5bdb881a5cc81b1bd8dad959605a1b604082015260600190565b602080825260159082015274155cd95c881a5b881d1a1948189b1858dadb1a5cdd605a1b604082015260600190565b6001600160a01b03929092168252602082015260400190565b6000821982111561216c5761216c611fe0565b500190565b634e487b7160e01b600052602160045260246000fd5b60008282101561219957612199611fe0565b500390565b634e487b7160e01b600052603160045260246000fd5b6000825160005b818110156121d557602081860181015185830152016121bb565b818111156121e4576000828501525b50919091019291505056fea26469706673582212209a6b4ca8a7cd2decefa0b5fc78035b5ec53655a82043cfd6dbe0e6ed9f21c84064736f6c63430008090033",
  "linkReferences": {},
  "deployedLinkReferences": {}
}