{
  "_format": "hh-sol-artifact-1",
  "contractName": "EchoooMallPayment",
  "sourceName": "contracts/EchoooMallPayment.sol",
  "abi": [
    {
      "inputs": [
        {
          "internalType": "address",
          "name": "registryAddress",
          "type": "address"
        }
      ],
      "stateMutability": "nonpayable",
      "type": "constructor"
    },
    {
      "anonymous": false,
      "inputs": [
        {
          "indexed": true,
          "internalType": "bytes32",
          "name": "transactionId",
          "type": "bytes32"
        },
        {
          "indexed": true,
          "internalType": "address",
          "name": "merchant",
          "type": "address"
        },
        {
          "indexed": true,
          "internalType": "address",
          "name": "recipient",
          "type": "address"
        },
        {
          "indexed": false,
          "internalType": "address",
          "name": "token",
          "type": "address"
        },
        {
          "indexed": false,
          "internalType": "uint256",
          "name": "amount",
          "type": "uint256"
        }
      ],
      "name": "FundsWithdrawn",
      "type": "event"
    },
    {
      "anonymous": false,
      "inputs": [
        {
          "indexed": true,
          "internalType": "bytes32",
          "name": "transactionId",
          "type": "bytes32"
        },
        {
          "indexed": true,
          "internalType": "address",
          "name": "user",
          "type": "address"
        },
        {
          "indexed": false,
          "internalType": "address",
          "name": "token",
          "type": "address"
        },
        {
          "indexed": false,
          "internalType": "uint256",
          "name": "amount",
          "type": "uint256"
        },
        {
          "indexed": false,
          "internalType": "address",
          "name": "paymentAddress",
          "type": "address"
        },
        {
          "indexed": false,
          "internalType": "address",
          "name": "merchant",
          "type": "address"
        },
        {
          "indexed": false,
          "internalType": "uint256",
          "name": "timestamp",
          "type": "uint256"
        }
      ],
      "name": "OrderPlaced",
      "type": "event"
    },
    {
      "anonymous": false,
      "inputs": [
        {
          "indexed": true,
          "internalType": "bytes32",
          "name": "transactionId",
          "type": "bytes32"
        },
        {
          "indexed": true,
          "internalType": "address",
          "name": "merchant",
          "type": "address"
        },
        {
          "indexed": true,
          "internalType": "address",
          "name": "paymentAddress",
          "type": "address"
        },
        {
          "indexed": false,
          "internalType": "address",
          "name": "token",
          "type": "address"
        },
        {
          "indexed": false,
          "internalType": "uint256",
          "name": "amount",
          "type": "uint256"
        }
      ],
      "name": "RefundProcessed",
      "type": "event"
    },
    {
      "anonymous": false,
      "inputs": [
        {
          "indexed": true,
          "internalType": "address",
          "name": "merchant",
          "type": "address"
        },
        {
          "indexed": true,
          "internalType": "bytes32",
          "name": "transactionId",
          "type": "bytes32"
        }
      ],
      "name": "TransactionLocked",
      "type": "event"
    },
    {
      "anonymous": false,
      "inputs": [
        {
          "indexed": true,
          "internalType": "address",
          "name": "merchant",
          "type": "address"
        },
        {
          "indexed": true,
          "internalType": "bytes32",
          "name": "transactionId",
          "type": "bytes32"
        }
      ],
      "name": "TransactionUnlocked",
      "type": "event"
    },
    {
      "inputs": [
        {
          "internalType": "address",
          "name": "",
          "type": "address"
        },
        {
          "internalType": "uint256",
          "name": "",
          "type": "uint256"
        }
      ],
      "name": "MerchantOrders",
      "outputs": [
        {
          "internalType": "bytes32",
          "name": "",
          "type": "bytes32"
        }
      ],
      "stateMutability": "view",
      "type": "function"
    },
    {
      "inputs": [
        {
          "internalType": "uint256",
          "name": "",
          "type": "uint256"
        }
      ],
      "name": "OrderByIndex",
      "outputs": [
        {
          "internalType": "bytes32",
          "name": "",
          "type": "bytes32"
        }
      ],
      "stateMutability": "view",
      "type": "function"
    },
    {
      "inputs": [
        {
          "internalType": "address",
          "name": "",
          "type": "address"
        },
        {
          "internalType": "address",
          "name": "",
          "type": "address"
        }
      ],
      "name": "blackList",
      "outputs": [
        {
          "internalType": "bool",
          "name": "",
          "type": "bool"
        }
      ],
      "stateMutability": "view",
      "type": "function"
    },
    {
      "inputs": [],
      "name": "getAllLockedTransactionCount",
      "outputs": [
        {
          "internalType": "uint256",
          "name": "",
          "type": "uint256"
        }
      ],
      "stateMutability": "view",
      "type": "function"
    },
    {
      "inputs": [],
      "name": "getAllLockedTransactions",
      "outputs": [
        {
          "internalType": "bytes32[]",
          "name": "",
          "type": "bytes32[]"
        }
      ],
      "stateMutability": "view",
      "type": "function"
    },
    {
      "inputs": [
        {
          "internalType": "bytes32",
          "name": "transactionId",
          "type": "bytes32"
        }
      ],
      "name": "getOrderDetails",
      "outputs": [
        {
          "components": [
            {
              "internalType": "address",
              "name": "user",
              "type": "address"
            },
            {
              "internalType": "address",
              "name": "token",
              "type": "address"
            },
            {
              "internalType": "uint256",
              "name": "amount",
              "type": "uint256"
            },
            {
              "internalType": "address",
              "name": "paymentAddress",
              "type": "address"
            },
            {
              "internalType": "address",
              "name": "merchant",
              "type": "address"
            },
            {
              "internalType": "uint256",
              "name": "timestamp",
              "type": "uint256"
            },
            {
              "internalType": "bool",
              "name": "isWithdrawn",
              "type": "bool"
            },
            {
              "internalType": "bool",
              "name": "isRefunded",
              "type": "bool"
            },
            {
              "internalType": "bool",
              "name": "isLocked",
              "type": "bool"
            }
          ],
          "internalType": "struct EchoooMallPayment.Order",
          "name": "",
          "type": "tuple"
        }
      ],
      "stateMutability": "view",
      "type": "function"
    },
    {
      "inputs": [
        {
          "internalType": "address",
          "name": "merchant",
          "type": "address"
        }
      ],
      "name": "getWithdrawableOrders",
      "outputs": [
        {
          "internalType": "bytes32[]",
          "name": "",
          "type": "bytes32[]"
        }
      ],
      "stateMutability": "view",
      "type": "function"
    },
    {
      "inputs": [
        {
          "internalType": "bytes32",
          "name": "transactionId",
          "type": "bytes32"
        }
      ],
      "name": "lockTransaction",
      "outputs": [],
      "stateMutability": "nonpayable",
      "type": "function"
    },
    {
      "inputs": [
        {
          "internalType": "address",
          "name": "user",
          "type": "address"
        }
      ],
      "name": "lockUser",
      "outputs": [],
      "stateMutability": "nonpayable",
      "type": "function"
    },
    {
      "inputs": [
        {
          "internalType": "uint256",
          "name": "",
          "type": "uint256"
        }
      ],
      "name": "lockedTransactions",
      "outputs": [
        {
          "internalType": "bytes32",
          "name": "",
          "type": "bytes32"
        }
      ],
      "stateMutability": "view",
      "type": "function"
    },
    {
      "inputs": [
        {
          "internalType": "bytes32",
          "name": "",
          "type": "bytes32"
        }
      ],
      "name": "orders",
      "outputs": [
        {
          "internalType": "address",
          "name": "user",
          "type": "address"
        },
        {
          "internalType": "address",
          "name": "token",
          "type": "address"
        },
        {
          "internalType": "uint256",
          "name": "amount",
          "type": "uint256"
        },
        {
          "internalType": "address",
          "name": "paymentAddress",
          "type": "address"
        },
        {
          "internalType": "address",
          "name": "merchant",
          "type": "address"
        },
        {
          "internalType": "uint256",
          "name": "timestamp",
          "type": "uint256"
        },
        {
          "internalType": "bool",
          "name": "isWithdrawn",
          "type": "bool"
        },
        {
          "internalType": "bool",
          "name": "isRefunded",
          "type": "bool"
        },
        {
          "internalType": "bool",
          "name": "isLocked",
          "type": "bool"
        }
      ],
      "stateMutability": "view",
      "type": "function"
    },
    {
      "inputs": [],
      "name": "owner",
      "outputs": [
        {
          "internalType": "address",
          "name": "",
          "type": "address"
        }
      ],
      "stateMutability": "view",
      "type": "function"
    },
    {
      "inputs": [
        {
          "internalType": "bytes32",
          "name": "transactionId",
          "type": "bytes32"
        },
        {
          "internalType": "address",
          "name": "token",
          "type": "address"
        },
        {
          "internalType": "uint256",
          "name": "amount",
          "type": "uint256"
        },
        {
          "internalType": "address",
          "name": "merchant",
          "type": "address"
        }
      ],
      "name": "placeOrder",
      "outputs": [],
      "stateMutability": "nonpayable",
      "type": "function"
    },
    {
      "inputs": [
        {
          "internalType": "bytes32",
          "name": "transactionId",
          "type": "bytes32"
        }
      ],
      "name": "refundOrder",
      "outputs": [],
      "stateMutability": "nonpayable",
      "type": "function"
    },
    {
      "inputs": [
        {
          "internalType": "bytes32[]",
          "name": "transactionIds",
          "type": "bytes32[]"
        }
      ],
      "name": "refundOrdersBatch",
      "outputs": [],
      "stateMutability": "nonpayable",
      "type": "function"
    },
    {
      "inputs": [],
      "name": "tokenRegistry",
      "outputs": [
        {
          "internalType": "contract ITokenRegistry",
          "name": "",
          "type": "address"
        }
      ],
      "stateMutability": "view",
      "type": "function"
    },
    {
      "inputs": [],
      "name": "totalOrders",
      "outputs": [
        {
          "internalType": "uint256",
          "name": "",
          "type": "uint256"
        }
      ],
      "stateMutability": "view",
      "type": "function"
    },
    {
      "inputs": [
        {
          "internalType": "bytes32",
          "name": "transactionId",
          "type": "bytes32"
        }
      ],
      "name": "unlockTransaction",
      "outputs": [],
      "stateMutability": "nonpayable",
      "type": "function"
    },
    {
      "inputs": [
        {
          "internalType": "address",
          "name": "user",
          "type": "address"
        }
      ],
      "name": "unlockUser",
      "outputs": [],
      "stateMutability": "nonpayable",
      "type": "function"
    },
    {
      "inputs": [
        {
          "internalType": "address",
          "name": "registryAddress",
          "type": "address"
        }
      ],
      "name": "updateTokenRegistry",
      "outputs": [],
      "stateMutability": "nonpayable",
      "type": "function"
    },
    {
      "inputs": [
        {
          "internalType": "bytes32",
          "name": "transactionId",
          "type": "bytes32"
        },
        {
          "internalType": "address",
          "name": "recipient",
          "type": "address"
        }
      ],
      "name": "withdrawFunds",
      "outputs": [],
      "stateMutability": "nonpayable",
      "type": "function"
    },
    {
      "inputs": [
        {
          "internalType": "bytes32[]",
          "name": "transactionIds",
          "type": "bytes32[]"
        },
        {
          "internalType": "address",
          "name": "recipient",
          "type": "address"
        }
      ],
      "name": "withdrawFundsBatch",
      "outputs": [],
      "stateMutability": "nonpayable",
      "type": "function"
    }
  ],
  "bytecode": "0x608060405234801561001057600080fd5b50604051611e83380380611e8383398101604081905261002f91610062565b60068054336001600160a01b031991821617909155600780549091166001600160a01b0392909216919091179055610092565b60006020828403121561007457600080fd5b81516001600160a01b038116811461008b57600080fd5b9392505050565b611de2806100a16000396000f3fe608060405234801561001057600080fd5b50600436106101225760003560e01c80635c3f11e2116100a85780635c3f11e2146103105780638da5cb5b146103235780639c3f1e90146103435780639d23c4c71461040b578063bd1870a31461041e578063c21bfad714610431578063c57bb4af14610451578063c5d4335114610464578063d797258014610477578063ddb2a3e21461048a578063fb97a1871461049d57600080fd5b8063024663f714610127578063034254c91461022a5780630db9bd61146102685780630dd223b11461027d578063116a1d9a146102905780631d834409146102a35780631fa915a4146102ba5780632133dba0146102cd57806339cffedc146102e25780633dcdfa56146102f557806356e082a414610308575b600080fd5b6102146101353660046118d9565b6040805161012081018252600080825260208201819052918101829052606081018290526080810182905260a0810182905260c0810182905260e08101829052610100810191909152506000908152602081815260409182902082516101208101845281546001600160a01b039081168252600183015481169382019390935260028201549381019390935260038101548216606084015260048101549091166080830152600581015460a08301526006015460ff808216151560c08401526101008083048216151560e0850152620100009092041615159082015290565b60405161022191906118f2565b60405180910390f35b610258610238366004611996565b600360209081526000928352604080842090915290825290205460ff1681565b6040519015158152602001610221565b61027b610276366004611a14565b6104b0565b005b61027b61028b366004611a67565b6104f5565b61027b61029e3660046118d9565b610538565b6102ac60045481565b604051908152602001610221565b61027b6102c8366004611aa8565b610794565b6102d5610809565b6040516102219190611aca565b61027b6102f0366004611b0e565b610861565b6102d5610303366004611aa8565b610c9f565b6005546102ac565b6102ac61031e366004611b54565b610fbf565b600654610336906001600160a01b031681565b6040516102219190611b7e565b6103b46103513660046118d9565b60006020819052908152604090208054600182015460028301546003840154600485015460058601546006909601546001600160a01b039586169694861695939492841693909116919060ff808216916101008104821691620100009091041689565b604080516001600160a01b039a8b168152988a1660208a0152880196909652938716606087015295909116608085015260a084015292151560c083015291151560e082015290151561010082015261012001610221565b600754610336906001600160a01b031681565b61027b61042c366004611aa8565b610ff0565b6102ac61043f3660046118d9565b60016020526000908152604090205481565b61027b61045f3660046118d9565b61108c565b61027b610472366004611b92565b6111db565b61027b610485366004611aa8565b611426565b6102ac6104983660046118d9565b6114c8565b61027b6104ab3660046118d9565b6114e9565b60005b828110156104ef576104dd8484838181106104d0576104d0611bb5565b90506020020135836111db565b806104e781611be1565b9150506104b3565b50505050565b60005b818110156105335761052183838381811061051557610515611bb5565b90506020020135610538565b8061052b81611be1565b9150506104f8565b505050565b6000818152602081815260409182902082516101208101845281546001600160a01b0390811682526001830154811693820193909352600282015493810193909352600381015482166060840152600481015490911660808301819052600582015460a084015260069091015460ff808216151560c08501526101008083048216151560e0860152620100009092041615159083015233146105f55760405162461bcd60e51b81526004016105ec90611bfc565b60405180910390fd5b8060c00151156106175760405162461bcd60e51b81526004016105ec90611c33565b8060e00151156106395760405162461bcd60e51b81526004016105ec90611c64565b8061010001511561065c5760405162461bcd60e51b81526004016105ec90611c95565b60008160400151116106b05760405162461bcd60e51b815260206004820152601c60248201527f4e6f2066756e647320617661696c61626c6520746f20726566756e640000000060448201526064016105ec565b60608101516001600160a01b03908116600090815260036020908152604080832060808601519094168352929052205460ff16156107005760405162461bcd60e51b81526004016105ec90611cc4565b60008281526020818152604091829020600601805461ff00191661010017905582015160608301519183015161073692906116b9565b80606001516001600160a01b0316336001600160a01b0316837f14edd35b43c228ee73a0aa9df658e89732dab299e48b06fb829318c1b291d7c884602001518560400151604051610788929190611cf3565b60405180910390a45050565b6006546001600160a01b031633146107e75760405162461bcd60e51b81526020600482015260166024820152752737ba103a34329031b7b73a3930b1ba1037bbb732b960511b60448201526064016105ec565b600780546001600160a01b0319166001600160a01b0392909216919091179055565b6060600580548060200260200160405190810160405280929190818152602001828054801561085757602002820191906000526020600020905b815481526020019060010190808311610843575b5050505050905090565b6000848152602081905260409020546001600160a01b0316156108bd5760405162461bcd60e51b81526020600482015260146024820152734f7264657220616c72656164792065786973747360601b60448201526064016105ec565b6000821161090d5760405162461bcd60e51b815260206004820152601d60248201527f416d6f756e74206d7573742062652067726561746572207468616e203000000060448201526064016105ec565b6007546040516360af135d60e11b81526001600160a01b039091169063c15e26ba9061093d908690600401611b7e565b60206040518083038186803b15801561095557600080fd5b505afa158015610969573d6000803e3d6000fd5b505050506040513d601f19601f8201168201806040525081019061098d9190611d0c565b6109c95760405162461bcd60e51b815260206004820152600d60248201526c24b73b30b634b2103a37b5b2b760991b60448201526064016105ec565b3360008181526003602090815260408083206001600160a01b038616845290915290205460ff1615610a305760405162461bcd60e51b815260206004820152601060248201526f125b881d1a1948189b1858dadb1a5cdd60821b60448201526064016105ec565b610a3c848230866117c9565b604051806101200160405280826001600160a01b03168152602001856001600160a01b03168152602001848152602001826001600160a01b03168152602001836001600160a01b031681526020014281526020016000151581526020016000151581526020016000151581525060008087815260200190815260200160002060008201518160000160006101000a8154816001600160a01b0302191690836001600160a01b0316021790555060208201518160010160006101000a8154816001600160a01b0302191690836001600160a01b031602179055506040820151816002015560608201518160030160006101000a8154816001600160a01b0302191690836001600160a01b0316021790555060808201518160040160006101000a8154816001600160a01b0302191690836001600160a01b0316021790555060a0820151816005015560c08201518160060160006101000a81548160ff02191690831515021790555060e08201518160060160016101000a81548160ff0219169083151502179055506101008201518160060160026101000a81548160ff021916908315150217905550905050846001600060046000815480929190610bff90611be1565b90915550815260208082019290925260409081016000908120939093556001600160a01b0385811680855260028452828520805460018101825590865294849020909401899055815188821681529283018790528416908201526060810191909152426080820152339086907f7e58762c2ddd6b97645bfb18478e1485156480ba05bb4fbdbcddb8673b80b6b49060a00160405180910390a35050505050565b60606000805b6001600160a01b038416600090815260026020526040902054811015610ddf576001600160a01b038416600090815260026020526040812080548291829185908110610cf357610cf3611bb5565b60009182526020808320909101548352828101939093526040918201902081516101208101835281546001600160a01b03908116825260018301548116948201949094526002820154928101929092526003810154831660608301526004810154831660808301819052600582015460a084015260069091015460ff808216151560c08501526101008083048216151560e08601526201000090920416151590830152909250908616148015610dab57508060c00151155b8015610db957508060e00151155b15610dcc5782610dc881611be1565b9350505b5080610dd781611be1565b915050610ca5565b50600080826001600160401b03811115610dfb57610dfb611d2e565b604051908082528060200260200182016040528015610e24578160200160208202803683370190505b50905060005b6001600160a01b038616600090815260026020526040902054811015610fb6576001600160a01b038616600090815260026020526040812080548291829185908110610e7857610e78611bb5565b60009182526020808320909101548352828101939093526040918201902081516101208101835281546001600160a01b03908116825260018301548116948201949094526002820154928101929092526003810154831660608301526004810154831660808301819052600582015460a084015260069091015460ff808216151560c08501526101008083048216151560e08601526201000090920416151590830152909250908816148015610f3057508060c00151155b8015610f3e57508060e00151155b15610fa3576001600160a01b0387166000908152600260205260409020805483908110610f6d57610f6d611bb5565b9060005260206000200154838581518110610f8a57610f8a611bb5565b602090810291909101015283610f9f81611be1565b9450505b5080610fae81611be1565b915050610e2a565b50949350505050565b60026020528160005260406000208181548110610fdb57600080fd5b90600052602060002001600091509150505481565b6001600160a01b03811660009081526003602090815260408083203380855292529091205460ff1661105b5760405162461bcd60e51b8152602060048201526014602482015273139bdd081a5b881d1a1948189b1858dadb1a5cdd60621b60448201526064016105ec565b6001600160a01b0391821660009081526003602090815260408083209390941682529190915220805460ff19169055565b600081815260208190526040902060048101546001600160a01b0316331461110a5760405162461bcd60e51b815260206004820152602b60248201527f4f6e6c7920746865206d65726368616e742063616e206c6f636b20746869732060448201526a3a3930b739b0b1ba34b7b760a91b60648201526084016105ec565b600681015462010000900460ff16156111655760405162461bcd60e51b815260206004820152601d60248201527f5472616e73616374696f6e20697320616c7265616479206c6f636b656400000060448201526064016105ec565b60068101805462ff00001916620100001790556005805460018101825560009182527f036b6384b5eca791c62761152d0c79bb0604c104a5fb6f4eb0703f3154bb3db001839055604051839133917fced1fafa2c6a47c5ac7b08abf7318db470f03158c0f9ceda08c3e9201a7b33679190a35050565b6000828152602081815260409182902082516101208101845281546001600160a01b0390811682526001830154811693820193909352600282015493810193909352600381015482166060840152600481015490911660808301819052600582015460a084015260069091015460ff808216151560c08501526101008083048216151560e08601526201000090920416151590830152331461128f5760405162461bcd60e51b81526004016105ec90611bfc565b8060c00151156112b15760405162461bcd60e51b81526004016105ec90611c33565b8060e00151156112d35760405162461bcd60e51b81526004016105ec90611c64565b806101000151156112f65760405162461bcd60e51b81526004016105ec90611c95565b600081604001511161134a5760405162461bcd60e51b815260206004820152601e60248201527f4e6f2066756e647320617661696c61626c6520746f207769746864726177000060448201526064016105ec565b60608101516001600160a01b03908116600090815260036020908152604080832060808601519094168352929052205460ff161561139a5760405162461bcd60e51b81526004016105ec90611cc4565b60008381526020818152604091829020600601805460ff19166001179055820151908201516113cb919084906116b9565b816001600160a01b0316336001600160a01b0316847f214bb2ab6f1f32a9540ccb6f594ba53668a5899918539a34252f62b574257d8b84602001518560400151604051611419929190611cf3565b60405180910390a4505050565b6001600160a01b03811660009081526003602090815260408083203380855292529091205460ff16156114945760405162461bcd60e51b81526020600482015260166024820152751059191959081d1bc81d1a1948189b1858dadb1a5cdd60521b60448201526064016105ec565b6001600160a01b0391821660009081526003602090815260408083209390941682529190915220805460ff19166001179055565b600581815481106114d857600080fd5b600091825260209091200154905081565b600081815260208190526040902060048101546001600160a01b031633146115695760405162461bcd60e51b815260206004820152602d60248201527f4f6e6c7920746865206d65726368616e742063616e20756e6c6f636b2074686960448201526c39903a3930b739b0b1ba34b7b760991b60648201526084016105ec565b600681015462010000900460ff166115bf5760405162461bcd60e51b8152602060048201526019602482015278151c985b9cd858dd1a5bdb881a5cc81b9bdd081b1bd8dad959603a1b60448201526064016105ec565b60068101805462ff00001916905560005b6005548110156116875782600582815481106115ee576115ee611bb5565b90600052602060002001541415611675576005805461160f90600190611d44565b8154811061161f5761161f611bb5565b90600052602060002001546005828154811061163d5761163d611bb5565b600091825260209091200155600580548061165a5761165a611d5b565b60019003818190600052602060002001600090559055611687565b8061167f81611be1565b9150506115d0565b50604051829033907fe18e9c4f686dbec85af18a02d4409a5f3fe1680455ec4e3f88c78f5b4ee8fbb690600090a35050565b600080846001600160a01b031663a9059cbb60e01b85856040516024016116e1929190611cf3565b60408051601f198184030181529181526020820180516001600160e01b03166001600160e01b031990941693909317909252905161171f9190611d71565b6000604051808303816000865af19150503d806000811461175c576040519150601f19603f3d011682016040523d82523d6000602084013e611761565b606091505b509150915081801561178b57508051158061178b57508080602001905181019061178b9190611d0c565b6117c25760405162461bcd60e51b815260206004820152600860248201526712995d1bdb8e94d560c21b60448201526064016105ec565b5050505050565b604080516001600160a01b0385811660248301528481166044830152606480830185905283518084039091018152608490920183526020820180516001600160e01b03166323b872dd60e01b179052915160009283929088169161182d9190611d71565b6000604051808303816000865af19150503d806000811461186a576040519150601f19603f3d011682016040523d82523d6000602084013e61186f565b606091505b50915091508180156118995750805115806118995750808060200190518101906118999190611d0c565b6118d15760405162461bcd60e51b81526020600482015260096024820152682532ba37b71d29aa2360b91b60448201526064016105ec565b505050505050565b6000602082840312156118eb57600080fd5b5035919050565b81516001600160a01b03908116825260208084015182169083015260408084015190830152606080840151821690830152608080840151918216908301526101208201905060a083015160a083015260c083015161195460c084018215159052565b5060e083015161196860e084018215159052565b50610100928301511515919092015290565b80356001600160a01b038116811461199157600080fd5b919050565b600080604083850312156119a957600080fd5b6119b28361197a565b91506119c06020840161197a565b90509250929050565b60008083601f8401126119db57600080fd5b5081356001600160401b038111156119f257600080fd5b6020830191508360208260051b8501011115611a0d57600080fd5b9250929050565b600080600060408486031215611a2957600080fd5b83356001600160401b03811115611a3f57600080fd5b611a4b868287016119c9565b9094509250611a5e90506020850161197a565b90509250925092565b60008060208385031215611a7a57600080fd5b82356001600160401b03811115611a9057600080fd5b611a9c858286016119c9565b90969095509350505050565b600060208284031215611aba57600080fd5b611ac38261197a565b9392505050565b6020808252825182820181905260009190848201906040850190845b81811015611b0257835183529284019291840191600101611ae6565b50909695505050505050565b60008060008060808587031215611b2457600080fd5b84359350611b346020860161197a565b925060408501359150611b496060860161197a565b905092959194509250565b60008060408385031215611b6757600080fd5b611b708361197a565b946020939093013593505050565b6001600160a01b0391909116815260200190565b60008060408385031215611ba557600080fd5b823591506119c06020840161197a565b634e487b7160e01b600052603260045260246000fd5b634e487b7160e01b600052601160045260246000fd5b6000600019821415611bf557611bf5611bcb565b5060010190565b6020808252601f908201527f4e6f7420746865206d65726368616e7420666f722074686973206f7264657200604082015260600190565b602080825260179082015276233ab732399030b63932b0b23c903bb4ba34323930bbb760491b604082015260600190565b60208082526017908201527613dc99195c881a185cc81899595b881c99599d5b991959604a1b604082015260600190565b602080825260159082015274151c985b9cd858dd1a5bdb881a5cc81b1bd8dad959605a1b604082015260600190565b602080825260159082015274155cd95c881a5b881d1a1948189b1858dadb1a5cdd605a1b604082015260600190565b6001600160a01b03929092168252602082015260400190565b600060208284031215611d1e57600080fd5b81518015158114611ac357600080fd5b634e487b7160e01b600052604160045260246000fd5b600082821015611d5657611d56611bcb565b500390565b634e487b7160e01b600052603160045260246000fd5b6000825160005b81811015611d925760208186018101518583015201611d78565b81811115611da1576000828501525b50919091019291505056fea2646970667358221220024f53e7af21bbeabcfd59703675fdc079a48ef06bed6bc7bb2c813f2f35502c64736f6c63430008090033",
  "linkReferences": {},
  "deployedLinkReferences": {}
}